:020000040000FA
:100000000C942C060C9454060C9454060C94540630
:100010000C9454060C9454060C9454060C945406F8
:100020000C9454060C9454060C9454060C945406E8
:100030000C9454060C9454060C9454060C945406D8
:100040000C94971B0C9454060C94071C0C94E11B05
:100050000C9454060C9454060C9454060C945406B8
:100060000C94391C0C94540600000000003E5B4FB9
:100070005B3E3E6B4F6B3E1C3E7C3E1C183C7E3C08
:10008000181C577D571C1C5E7F5E1C00183C180016
:10009000FFE7C3E7FF0018241800FFE7DBE7FF30A6
:1000A000483A060E2629792926407F050507407F14
:1000B00005253F5A3CE73C5A7F3E1C1C08081C1C87
:1000C0003E7F14227F22145F5F005F5F06097F017D
:1000D0007F006689956A606060606094A2FFA29468
:1000E00008047E040810207E201008082A1C080836
:1000F0001C2A08081E101010100C1E0C1E0C303884
:100100003E3830060E3E0E06000000000000005F84
:1001100000000007000700147F147F14242A7F2AA0
:100120001223130864623649562050000807030062
:10013000001C2241000041221C002A1C7F1C2A08AE
:10014000083E080800807030000808080808000011
:1001500060600020100804023E5149453E00427F85
:10016000400072494949462141494D331814127FD4
:100170001027454545393C4A494931412111090774
:100180003649494936464949291E000014000000F5
:1001900040340000000814224114141414140041C7
:1001A00022140802015909063E415D594E7C121184
:1001B000127C7F494949363E414141227F414141BC
:1001C0003E7F494949417F090909013E4141517337
:1001D0007F0808087F00417F41002040413F017FA8
:1001E000081422417F404040407F021C027F7F0470
:1001F00008107F3E4141413E7F090909063E4151B9
:10020000215E7F09192946264949493203017F01A8
:10021000033F4040403F1F2040201F3F4038403FA9
:10022000631408146303047804036159494D4300BF
:100230007F4141410204081020004141417F0402F6
:10024000010204404040404000030708002054548D
:1002500078407F284444383844444428384444286B
:100260007F385454541800087E090218A4A49C78BE
:100270007F0804047800447D40002040403D007F1A
:100280001028440000417F40007C047804787C08FA
:100290000404783844444438FC18242418182424CE
:1002A00018FC7C08040408485454542404043F44B3
:1002B000243C4040207C1C2040201C3C4030403CE2
:1002C00044281028444C9090907C4464544C440042
:1002D00008364100000077000000413608000201A6
:1002E0000204023C2623263C1EA1A161123A404092
:1002F000207A38545455592155557941225454780F
:1003000042215554784020545579400C1E527212A7
:100310003955555559395454545939555454580030
:1003200000457C410002457D420001457C407D1234
:1003300011127DF0282528F07C5455450020545496
:100340007C547C0A097F4932494949323A44444441
:100350003A324A4848303A4141217A3A424020787C
:10036000009DA0A07D3D4242423D3D4040403D3C7D
:1003700024FF2424487E4943662B2FFC2F2BFF09A2
:1003800029F620C0887E0903205454794100004496
:100390007D413048484A32384040227A007A0A0A81
:1003A000727D0D19317D2629292F282629292926F4
:1003B00030484D4020380808080808080808382F39
:1003C00010C8ACBA2F102834FA00007B00000814C3
:1003D0002A142222142A14085500550055AA55AA99
:1003E00055AAFF55FF55FF000000FF00101010FF39
:1003F00000141414FF001010FF00FF1010F010F094
:10040000141414FC001414F700FF0000FF00FF1484
:1004100014F404FC141417101F10101F101F1414D0
:10042000141F00101010F0000000001F101010101A
:100430001F10101010F010000000FF10101010100E
:1004400010101010FF10000000FF140000FF00FF4C
:1004500000001F10170000FC04F4141417101714E8
:1004600014F404F40000FF00F7141414141414140A
:10047000F700F7141414171410101F101F1414147D
:10048000F4141010F010F000001F101F0000001FE7
:1004900014000000FC140000F010F01010FF10FF1A
:1004A000141414FF141010101F00000000F010FFAF
:1004B000FFFFFFFFF0F0F0F0F0FFFFFF0000000093
:1004C00000FFFF0F0F0F0F0F3844443844FC4A4A17
:1004D0004A347E02020606027E027E0263554941CC
:1004E000633844443C04407E201E2006027E020203
:1004F00099A5E7A5991C2A492A1C4C7201724C3017
:100500004A4D4D303048784830BC625A463D3E49ED
:100510004949007E0101017E2A2A2A2A2A44445F91
:10052000444440514A444040444A51400000FF0185
:1005300003E080FF000008086B6B08361236243693
:10054000060F090F060000181800000010100030F8
:1005500040FF0101001F01011E00191D1712003C80
:100560003C3C3C000000000011007F962900010087
:100570007F9628003A0155C0021010C10141C50400
:1005800000228040360168B00100B102B011B40110
:1005900002B60302023BB701C63A0155F704A9515E
:1005A0002C82C0020D0DC1024300C20100C504002F
:1005B000480048B40100B60302023BE00F0F211CC3
:1005C0000B0E08499838091103141000E10F0F2F82
:1005D0002B0C0E06477637071104231E00B00100CE
:1005E000B30402000000B40100D003074218D10395
:1005F000000710D2020102D3020102D4020102C09C
:1006000005123B000211C103101088C50103C60189
:1006100002C80C003236450616377577540C00CCEC
:100620000100F603010100CF03008130ED046403F3
:100630001281E803851078CB05392C003402F701CC
:1006400020EA020000B00100B102001BB40100C0AA
:100650000121C10111C5023F3CC701B5360148F275
:100660000100260101E00F0F26240B0E0954A846B5
:100670000C17090F0700E10F00191B0410072A4788
:100680003903060630380F360100B00100C10410EE
:10069000100202C006003500000102C50104D202AA
:1006A0000104CA0100EA0180B903FF83577F967FE6
:1006B00096B60125C0065050013C1E08B407024002
:1006C000002A2A0D787F01F20B1616030808080885
:1006D00010041616FD03110235B2050C0C0033335D
:1006E000B70135BB012BC00104C20201FFC30111D8
:1006F000C40120C6010FD002A4A1E00ED000050E57
:10070000150D3743470915121619E10ED000050DD6
:100710000C062D44400E1C1816193A01557F0AB0DC
:100720000103E2013FC00122E20100B00100C0016B
:100730000AB00100000000000000000000000000FE
:1007400000000000FFFF0F0000040062080008081E
:100750000003000C01030B5A0203060903031710E0
:100760000403002305030017060309630703090CAC
:1007700008030C10090332221000160011000101B9
:1007800012000000130001000001300301013702D4
:100790000301000D800200610201B0C1FFFF3200C1
:1007A00001000001020000010300301009000100F7
:1007B0000C000000900000800F00000010020000FC
:1007C0001102EF001202000013028F010005000069
:1007D0000105000002055F0001040100040400009F
:1007E000FFFF320007000001FFFF3200000200009F
:1007F00001020000000000000000000000000000F6
:1008000000000100A4000100FFFF0A0060000027B3
:1008100008000808300014023100153732000406C1
:100820003300160E340011223500001536000785FE
:100830003700071438000314390020009000150019
:100840001000100411003702290046002A0046005B
:10085000070000001200890113000011FFFF96003D
:100860001200B90101000001020000020300301073
:10087000090001000A0000000D0000000E00300019
:10088000610001006A00000080000000810000009B
:1008900082005F009200000193000107FFFF5000FB
:1008A00007000001E500F0780100000102000002ED
:1008B00003003010040000000500000008000702DB
:1008C000090000000A0000000C0000000D000000FC
:1008D0000F000000100000001100070012000000CF
:1008E0001300000007000100FFFFC8001000901671
:1008F00011002702FFFF320012000D00FFFF32003F
:100900001300001229000A002B000D00FFFF320027
:10091000200000002100000030000000310004042D
:1009200032000300350005043600080837000704CC
:1009300038000303390007073C0004053D000808A0
:1009400060000027610001006A00000080000000D4
:10095000810000008200000083000000840000008D
:100960008500000090001000920000000700330195
:10097000E500008000000100010000010200000706
:10098000030030100400000008000202090000000B
:100990000A0000000C0000000D0000000F00000025
:1009A00010000000110007001200000013000000FA
:1009B000FFFF32001000B01711000700FFFF0A0010
:1009C00012003A01FFFF0A001300001A29000C0070
:1009D000FFFF0A003000000031000505320004006E
:1009E0003500060036000707370005013800020011
:1009F000390007073C0004073D000708600000A716
:100A0000610001006A0000002100000020000000D9
:100A100080000000810000008200000083000000D0
:100A2000840000008500000090001000920000008B
:100A3000930003009500100197000000980000004B
:100A400007007301FFFF3200FF000100F300080000
:100A50000000010001000001020000070300301047
:100A60000800020309000000100000001100070048
:100A70001200000013000000FFFF32001000B0144D
:100A8000FFFF0A0011000700FFFF0A0012008E009E
:100A90001300000C29001500FFFF0A0030000000C1
:100AA0003100070132000000350003023600020465
:100AB0003700000038000702390000003C00030244
:100AC0003D000304600000A76100010090002900C0
:100AD00007003301FFFF3200150030009A001000BC
:100AE00011002000100028341200020013003810FA
:100AF000FFFF280012001200FFFF28001000203422
:100B000013004530FFFF46003000000031000204B2
:100B100032000703330004033400040035000104ED
:100B200036000707370005033800100639001006A5
:100B30000100000102000003030030100800080853
:100B40000A000800600000276100010090003E01DB
:100B50009200000193000001A0000030A3001000EB
:100B600007000100070021000700230007003300F1
:100B70000700330111001A001200213113006C002C
:100B80001400494210000008FFFF0A0011001A017A
:100B9000FFFF0A0011001A03FFFF0A0011001A07E5
:100BA000FFFF0A0011001A0FFFFF0A0011003A0FA1
:100BB000FFFF1E00010028010200000103003010A9
:100BC00007001210080003030B0000110C000000C6
:100BD0000F0001181500200050000101510003060C
:100BE0005200080453000000540005065500060496
:100BF000560003035700030358001000590000106B
:100C000007001200FFFF280007001300070017006D
:100C100000000008000201000003040700000000BB
:100C200000000000010204081020408001020408B6
:100C300010200102040810200000000025002800F8
:100C40002B0004040404040404040202020202024D
:100C5000030303030303541D11241FBECFEFD8E089
:100C6000DEBFCDBF11E0A0E0B1E0E6E0F8E402C0F5
:100C700005900D92A235B107D9F725E0A2E5B1E0C4
:100C800001C01D92A134B207E1F716E0CCE2D6E034
:100C900004C02197FE010E94F623CB32D107C9F789
:100CA0000E94361E0C9401240C94000090E0FC017C
:100CB000E05FF34F2491FC01EC5DF34F3491FC01B4
:100CC000EE5BF34FE491EE23C9F0222339F0233099
:100CD00001F1A8F4213019F1223029F1F0E0EE0FF2
:100CE000FF1FE85CF34FA591B4918FB7F894EC9196
:100CF000611126C030953E233C938FBF0895273065
:100D0000A9F02830C9F0243049F7809180008F7D08
:100D100003C0809180008F7780938000DFCF84B5FF
:100D20008F7784BDDBCF84B58F7DFBCF8091B00002
:100D30008F778093B000D2CF8091B0008F7DF9CFB4
:100D40003E2BDACF3FB7F8948091CB039091CC0340
:100D5000A091CD03B091CE0326B5A89B05C02F3F2F
:100D600019F00196A11DB11D3FBFBA2FA92F982FD1
:100D70008827BC01CD01620F711D811D911D42E0CC
:100D8000660F771F881F991F4A95D1F708958F9294
:100D90009F92AF92BF92CF92DF92EF92FF926B0140
:100DA0007C010E94A2064B015C01C114D104E10444
:100DB000F104B9F00E94A206681979098A099B0911
:100DC000683E73408105910580F321E0C21AD10885
:100DD000E108F10888EE880E83E0981EA11CB11C82
:100DE000E4CFFF90EF90DF90CF90BF90AF909F90B7
:100DF0008F900895AF92BF92CF92DF92EF92FF92C1
:100E00000F931F93CF93DF936C017B018B01040F32
:100E1000151FEB015E01AE18BF08C017D10759F0CE
:100E20006991D601ED91FC910190F081E02DC60110
:100E30000995892B79F7C501DF91CF911F910F910A
:100E4000FF90EF90DF90CF90BF90AF900895FC019E
:100E5000538D448D252F30E0842F90E0821B930B1F
:100E6000541710F0CF96089501970895FC01918DC5
:100E7000828D981761F0A28DAE0FBF2FB11D5D96C8
:100E80008C91928D9F5F9F73928F90E008958FEF6A
:100E90009FEF0895FC01918D828D981731F0828D1E
:100EA000E80FF11D858D90E008958FEF9FEF089575
:100EB000FC01918D228D892F90E0805C9F4F821BD9
:100EC00091098F739927089584ED93E00E94580744
:100ED00021E0892B09F420E0822F089580E090E042
:100EE000892B29F00E94640781110C940000089559
:100EF000FC01A48DA80FB92FB11DA35ABF4F2C918F
:100F0000848D90E001968F739927848FA689B78985
:100F10002C93A089B1898C91837080648C93938D7C
:100F2000848D981306C00288F389E02D80818F7D1F
:100F300080830895EF92FF920F931F93CF93DF93D7
:100F4000EC0181E0888F9B8D8C8D98131AC0E88905
:100F5000F989808185FF15C09FB7F894EE89FF89D4
:100F60006083E889F98980818370806480839FBF72
:100F700081E090E0DF91CF911F910F91FF90EF9072
:100F80000895F62E0B8D10E00F5F1F4F0F73112782
:100F9000E02E8C8D8E110CC00FB607FCFACFE889BD
:100FA000F989808185FFF5CFCE010E947807F1CFC6
:100FB000EB8DEC0FFD2FF11DE35AFF4FF0829FB731
:100FC000F8940B8FEA89FB8980818062CFCFCF9321
:100FD000DF93EC01888D8823B9F0AA89BB89E88961
:100FE000F9898C9185FD03C0808186FD0DC00FB607
:100FF00007FCF7CF8C9185FFF2CF808185FFEDCF85
:10100000CE010E947807E9CFDF91CF9108954398F0
:10101000429825B12C7F392F3370232B25B92BB162
:1010200023709C7F922B9BB94198419A95B19C7FEC
:10103000282F2370922B95B99BB193708C7F892BAD
:101040008BB94198419A429AFA01615078F0219106
:1010500095B19C7F822F8370982B95B98BB183704B
:101060002C7F822B8BB94198419AEFCF439A0895F8
:10107000DF92EF92FF920F931F93CF93DF93CDB741
:10108000DEB768970FB6F894DEBF0FBECDBF7C0108
:101090008B01F70184913196D490F2E0EF0EF11CB0
:1010A0008F3779F0DE01119630E020E0AD012D158B
:1010B00028F5F701E20FF31FE491ED932F5F3F4F07
:1010C000F6CF6D2D70E090E080E00E94C706D12C35
:1010D000ED2DF0E032960E1B1F0B10161106CCF210
:1010E00068960FB6F894DEBF0FBECDBFDF91CF91EB
:1010F0001F910F91FF90EF90DF900895ED0CF11C80
:101100006D2D90E00E940708E3CF4398429825B1E7
:101110002C7F392F3370232B25B92BB123709C7F63
:10112000922B9BB94198419A95B19C7F282F2370AF
:10113000922B95B99BB193708C7F892B8BB9419879
:10114000419A429A85B18C7F972F9370892B85B9EC
:101150008BB183707C7F782B7BB94198419A85B1A4
:101160008C7F962F9370892B85B98BB183706C7FA0
:10117000682B6BB94198419A439A089581E0809316
:10118000D30384B1836084B98AB18C6F8AB9389AE9
:10119000399A3A9A3B9A3C9A439A409A419A449A8D
:1011A00062E370E080E090E00E94C706449864E645
:1011B00070E080E090E00E94C706449A64E670E028
:1011C00080E090E00E94C70670E060E080EB90E075
:1011D0000C948508CF93DF93C82FD62F8091D3032B
:1011E000811102C00E94BE084398429885B18C7F4D
:1011F00085B98BB183708BB94198419A95B19C7F29
:101200008C2F8370982B95B98BB18370CC7F8C2BEE
:101210008BB94198419A429A84B18C7F84B98AB142
:1012200083708AB961E070E080E090E00E94C706B8
:10123000409A40984098409893B139B1409A409A6A
:1012400040984098409883B129B1409AD15080F796
:10125000409A439A44B1436044B94AB14C6F4AB989
:1012600093703C7F932B83702C7F822BDF91CF91E7
:101270000895FF920F931F93CF93DF938C0160E04B
:101280000E94EA08EC0161E0C8010E94EA08F82E19
:1012900062E0C8010E94EA08AE0170E060E0742FCD
:1012A00066275527442700E030E020E0402B5F29E7
:1012B000622B732B292F30E0C901B0E0A0E08A0136
:1012C0009B01082B192B2A2B3B2BC901B801DF915D
:1012D000CF911F910F91FF9008950F931F93CF937C
:1012E000DF938C0160E00E94EA08EC0161E0C80134
:1012F0000E94EA088C01BE0190E080E0CB017727D4
:10130000662730E020E0602B712B822B932BDF913E
:10131000CF911F910F9108950F931F93CF93DF9358
:10132000EC018B01FE0185919491FE013296249689
:10133000659174918F3F980771F490E080E00E946E
:10134000C706045011091016110664F3DF91CF91FE
:101350001F910F9108950E948508F3CFFC01262F5D
:10136000358D868D82958170982F9627692F70E034
:1013700072A361A330FF0CC0821307C080E290E02B
:1013800050E040E060E00C94070881E290E0F8CF84
:10139000878D90A1873222E99207C0F4853222E935
:1013A000920758F4803224E59207B9F0833927E791
:1013B000920799F084359140A1F4660F771F660F6C
:1013C000771F636187E090E00C948508863223E9FB
:1013D000920719F08930954B21F4626081E094E026
:1013E000F3CF81E690E0F0CF8F929F92AF92BF92C1
:1013F000CF92DF92EF92FF920F931F93CF93DF93E1
:1014000000D000D0CDB7DEB77C014B015A01690195
:10141000FC01878D90A18732F3E99F0709F040C056
:10142000F7018689823099F5F0E2AF0EB11C005EBB
:101430001F4FF701858D80FF4AC085A599828A825A
:10144000DB82CC82AE014F5F5F4F64E090E00E9490
:101450000708F70181A9B982AA821B830C83AE0118
:101460004F5F5F4F64E090E00E9407080F900F907D
:101470000F900F90DF91CF911F910F91FF90EF9000
:10148000DF90CF90BF90AF909F908F900895833062
:1014900081F620E2820E911C80E2C80ED11CC9CFD9
:1014A0008632954131F6F701868980FFC2CFC801A7
:1014B000841B950B19F40F5F1F4FBBCF6217730787
:1014C00009F0B7CF6B01C80ED91E8A01B2CFB401A3
:1014D00087A190A50E948508B501F70181A592A575
:1014E0000E948508C814D90421F40A151B0509F4C3
:1014F000BDCFF701858D85FF08C0868980FF1EC09E
:10150000102F0027A02AB12A8501B401F70185A573
:1015100096A50E948508B501F70181A992A90E94AC
:101520008508B601F70187A590A90E948508B80132
:10153000F70183A994A90E94850898CFDC2CCC24BC
:101540008C289D286401E1CFAF92BF92CF92DF92A9
:10155000EF92FF920F931F93CF93DF93EC01809153
:10156000C903882349F0C701880F991F8E739927F3
:10157000E1ECEE22E82AF92A37FF05C0620F731F5B
:10158000319521953109260F371F77FF02C070E092
:1015900060E088859985281739070CF4C9016C012A
:1015A000C61AD70A17FF05C0400F511F11950195A4
:1015B0001109040F151F57FF02C050E040E02A85B3
:1015C0003B85021713070CF498015901A41AB50AB8
:1015D0008901015011099C0121503109CE010E945D
:1015E000F409439842983BA58CA525B12C7F982FF0
:1015F0009370292B25B99BB193708C7F982B9BB945
:101600004198419A95B19C7F832F8370982B95B90F
:101610008BB183703C7F832B8BB94198419A429A5E
:10162000CA14DB042CF09A2D8B2D5601C92ED82E0E
:101630009F2D4F2D43709C7F5E2D53702E2D2C7F40
:10164000E22E1C141D04E4F4950185B18C7F842BDB
:1016500085B98BB18370892B8BB94198419A85B13B
:101660008C7F852B85B98BB183708E298BB941987E
:10167000419A2150310949F781E0C81AD108E1CFD8
:10168000439A8D8D80FF08C08F8D98A18632954139
:1016900091F48E8980FF0FC00A851B8501501109C6
:1016A000288539852150310950E040E070E060E044
:1016B000CE010E94F409DF91CF911F910F91FF900D
:1016C000EF90DF90CF90BF90AF900895EF92FF9290
:1016D0000F931F93CF93DF937C01E90177FD2AC01D
:1016E00057FD28C0FC01808591856817790714F59E
:1016F0008285938548175907ECF48091C9038823A4
:1017000041F0C901880F991F8E739927C17CC82B9E
:10171000D92B8A019B01C7010E94F409BE01F70180
:1017200083A594A5DF91CF911F910F91FF90EF902A
:101730000C948508DF91CF911F910F91FF90EF904E
:101740000895EF92FF920F931F93CF93DF93CDB73E
:10175000DEB72A970FB6F894DEBF0FBECDBF7C016F
:10176000862F8370F701868B962F917060FFF1C0F2
:1017700026813781F70131872087992309F4ECC04E
:1017800024813581F70133872287823009F4E9C04B
:10179000833009F4E8C0813009F4E1C088E48A8725
:1017A000F701258D368D30FF03C08A8580588A87E2
:1017B00031FF04C08A8590E489278A8733FF04C0FB
:1017C0008A8598E089278A87F701878D90A120FF75
:1017D000FAC08431F8E69F0709F0C7C09A85892FBF
:1017E00088728A871F82892F85958074282F2260AE
:1017F000892F90E09595879580729927822B88870D
:101800008BE38987AE01495F5F4F63E086EB90E031
:101810000E9407082AE230E0F70130A727A38BE2F5
:1018200090E092A781A74CE250E054A743A736A7C7
:1018300025A730AB27A792AB81AB94AB83ABAE01AE
:10184000465F5F4F61E086E390E00E9407088A856B
:1018500090E0F70194A383A3F701868980FF1CC061
:10186000858D968D92FD18C087A190A521A532A5E2
:1018700030A727A392A781A785A596A521A932A95C
:1018800036A725A792AB81AB87A590A923A934A938
:1018900030AB27A794AB83ABF701028513850150CA
:1018A0001109208531852150310950E040E070E078
:1018B00060E0C7010E94F409F70166817781878D96
:1018C00090A110E000E020E08732F3E99F0769F47F
:1018D000F7012689225010E000E0223010F400E2E7
:1018E00010E020E230E0201B310BF701458D40FF76
:1018F00024C119820A837B836C831D822E83AE01EF
:101900004F5F5F4F66E083E390E00E940708198213
:101910000A83AE014F5F5F4F62E087E390E00E9471
:101920000708F701858D80FF07C050E040E060E0C8
:1019300083E190E00E9407082A960FB6F894DEBF74
:101940000FBECDBFDF91CF911F910F91FF90EF9010
:101950000895248135810ECF2681378113CF88E207
:101960001ECF88E91CCF88EF1ACF833629E1920772
:1019700049F0813844E9940729F08131E5E19E0777
:1019800009F048CF2A8527FF02C021602A872A85CF
:1019900026FF02C022602A878336F9E19F0721F4DF
:1019A0008A858F738A8736CF813824E9920719F4A4
:1019B0008A858F72F7CF8131954109F02BCF8A85C7
:1019C0008F7E806CEFCF6A85262F062E000C330B9E
:1019D0008339F7E79F0761F008F042C08435E1E002
:1019E0009E0709F46AC08032F4E59F0709F041C000
:1019F00040E052E0F70150A747A341E052E052A770
:101A000041A742E052E054A743A740E152E056A765
:101A100045A741E152E050AB47A742E152E052AB4B
:101A200041AB43E152E054AB43AB222730788632DE
:101A3000F3E99F0729F060E07AE68032944511F4DB
:101A400060E075E3622B732B80E094E00E948508D0
:101A50006A85F4E06F9FB00111246627717055C04C
:101A6000863243E9940721F28930E5EB9E0709F4B9
:101A7000BFCF80E290E0F70190A787A381E290E0DA
:101A800092A781A782E290E094A783A780E590E0E7
:101A900096A785A781E590E090AB87A782E590E0C7
:101AA00092AB81AB83E590E094AB83ABB901662741
:101AB0007078776280E690E0C9CF87E390E0F70125
:101AC00096A785A786E390E090AB87A789E390E08F
:101AD00092AB81AB88E390E094AB83AB80E290E083
:101AE00090A787A381E290E092A781A782E290E08D
:101AF00094A783A7F4E06F9FB0011124662771704B
:101B0000222732702862622B732B81E090E00E94C2
:101B100085088A85682F70E0759567957595679536
:101B20006870772783FD70616063F70174A363A316
:101B300083E090E00E9485088FCE8339F7E79F0706
:101B400089F1F8F4803244E5940761F18338E7E7DE
:101B50009E07A1F184359140E9F4600F711F615037
:101B6000710981E390E00E948508B80182E390E06A
:101B70000E94850870E060E083E390E00E948508A1
:101B8000DBCE863223E9920769F048F48552924908
:101B9000029718F3F70161A172A1626012C0893047
:101BA000954BC1F7F70161A172A1626081E094E0F9
:101BB0000E948508B80184E094E0E0CFF70161A1BC
:101BC00072A181E690E00E948508B8018AE690E063
:101BD000D5CFEF92FF920F931F93DC01ED91FC9113
:101BE00000A0F1A1E02D780101E010E009951F911E
:101BF0000F91FF90EF900895EF92FF920F931F9334
:101C0000DC01ED91FC9100A0F1A1E02D78018901AA
:101C100021E030E009951F910F91FF90EF9008951A
:101C20002091C301211109C021E02093C30130910B
:101C30007104209172043CBD2DBD60E0FC018481E3
:101C40000C94560661E0FC0184810E945606809146
:101C5000C30181111092C301089520917901260FCB
:101C60003327331F21323105ECF420919D01FC0113
:101C700090E080E0243069F082E00895A09179013D
:101C80002191AC01475A5E4FA40FB52FB11D2C9383
:101C90000196861798F380917901680F6093790116
:101CA00080E0089581E0089508958FEF9FEF0895F3
:101CB0008FEF9FEF08958091520190E0919581956B
:101CC00091090895CF93DF93CB01EA01642F0E941D
:101CD0002D0ECE01DF91CF910895CF93DF931F9208
:101CE000CDB7DEB7698361E0CE0101960E942D0E6B
:101CF00081E090E00F90DF91CF9108958EBD0000BC
:101D00000DB407FEFDCF8EB508958FEF0C947E0EB7
:101D10000F931F93CF93DF938C012FB7F89480918B
:101D2000CF039091D003A091D103B091D2032FBFE4
:101D3000EC010E94850E8F3FB1F02FB7F89480918F
:101D4000CF039091D003A091D103B091D2032FBFC4
:101D50008C1B9D0B8017910760F380E0DF91CF9182
:101D60001F910F91089581E0F9CFCF92DF92EF920A
:101D7000FF920F931F93CF93DF93EC01162F69010E
:101D80007A018E81882389F08F8198859C012F5F4D
:101D90003F4F38872F838230924018F40E94850E7F
:101DA000F3CFCE010E94220E1E82CE010E94100EA1
:101DB0008CE291E00E94880E812F80640E947E0E4A
:101DC00008E110E0D701C601002E04C0B695A79522
:101DD000979587950A94D2F70E947E0E08501109B4
:101DE000083F8FEF180771F78FEF0E947E0E10E00B
:101DF0000E94850E8A8787FF04C01F3F11F01F5F76
:101E0000F7CFDF91CF911F910F91FF90EF90DF906F
:101E1000CF900895CF92DF92EF92FF920F93CF93DE
:101E2000DF93EC01690182E14115510561057105FE
:101E300099F08B85833039F089E0440F551F661F78
:101E4000771F8A95D1F79A01AB0168E1CE010E9414
:101E5000B50E882319F084E08D832DC08EEF0E948B
:101E60007E0E76018EEFD81AF70181917F010E94D4
:101E70007E0EEC14FD04C1F78FEF0E947E0E8FEFF3
:101E80000E947E0E0E94850E8A878F71853071F4C4
:101E9000011116C0CE010E94220E81E0DF91CF9188
:101EA0000F91FF90EF90DF90CF90089581E18D83A7
:101EB000CE010E94220ECE010E94220E80E0EECFC3
:101EC00088E592E00E94880E811102C085E1C4CFAE
:101ED00020E030E0A9016DE0CE010E94B50E88231C
:101EE00011F084E1B9CF0E94850E8111FACFD2CFD3
:101EF0000F934091C5015091C6016091C701709147
:101F0000C801411551056105710589F0082F29ECBB
:101F100031E090E080E00E940A0F882349F010929F
:101F2000C5011092C6011092C7011092C80181E04C
:101F30000F9108950F93CF93C82F8091C401811101
:101F400005C0C1E08C2FCF910F9108954091000101
:101F50005091010160910201709103010C2F29EC55
:101F600031E090E080E00E940A0F811102C0C0E0E1
:101F7000E9CFCC2331F381E00E94780F8823B9F3B5
:101F80001092C401DFCFAF92BF92CF92DF92EF9257
:101F9000FF921F93CF93DF936B017C01142F8091ED
:101FA000000190910101A0910201B09103018C15F3
:101FB0009D05AE05BF0509F4BFC081E00E949A0FE0
:101FC0008823E1F1809106008823A1F08091000030
:101FD00090910100A0910200B0910300C816D906AB
:101FE000EA06FB0639F48091070090910800892BDE
:101FF00009F461C0C0920000D0920100E09202009A
:10200000F092030080910B00A7019601833039F014
:1020100099E0220F331F441F551F9A95D1F761E1B4
:1020200090E080E00E94B50E882391F083E08093D9
:10203000050090E080E00E94220E80E0DF91CF91C9
:102040001F91FF90EF90DF90CF90BF90AF900895D9
:102050002FB7F8948091CF039091D003A091D10332
:10206000B091D2032FBFEC010E94850E80930A002D
:102070008F3FC1F42FB7F8948091CF039091D00394
:10208000A091D103B091D2032FBF8C1B9D0B8D3239
:10209000914050F38FE08093050090E080E00E9433
:1020A000220EC7CF8E3FC1F5109208001092070094
:1020B00081E080930600C9ECD1E089ECA82E83E092
:1020C000B82E0E94850E8993AC16BD06D1F780917B
:1020D0000700909108009E5F90930800809307008E
:1020E00020910900222319F081159240E8F0809197
:1020F00006008823C9F080910700909108009C0198
:102100002F5F3F4F309308002093070082309240AA
:1021100028F40E94850EEFCF8DE0BDCF90E080E0E7
:102120000E94220E10920600C0920001D09201017E
:10213000E0920201F09203014091C401412B4093CF
:10214000C40181E07BCF4F925F926F927F928F921A
:102150009F92AF92BF92CF92DF92EF92FF920F9336
:102160001F93CF93DF93EC01423051056105710558
:1021700090F480E0DF91CF911F910F91FF90EF904D
:10218000DF90CF90BF90AF909F908F907F906F9097
:102190005F904F90089589859A85AB85BC8501969F
:1021A000A11DB11D84179507A607B70710F3CB88AB
:1021B000DC88ED88FE888F89803109F042C0BB271A
:1021C000A72F962F852F480159012A013B01C80EE0
:1021D000D91EEA1EFB1E8091000190910101A09181
:1021E0000201B0910301C816D906EA06FB0699F56B
:1021F0008F898031C1F5B301A20155276627772762
:10220000440F551F47535E4FFA019182808280919F
:10221000C40181608093C4018A89823080F08D81FD
:102220009E81AF81B8858C0D9D1DAE1DBF1D809315
:10223000C5019093C601A093C701B093C80181E086
:1022400099CFDB01CA01E7E0B695A79597958795E9
:10225000EA95D1F7B8CF40E0C701B6010E94C30F9D
:102260008111C6CF86CFB301A2014F7755276627CC
:102270007727440F551F440F551F47535E4FFA01F0
:1022800080829182A282B382C2CF8F929F92AF92BC
:10229000BF92CF92DF92EF92FF920F931F93CF9353
:1022A000DF93FC0181859285A385B4850196A11DEC
:1022B000B11D84179507A607B70770F480E0DF917A
:1022C000CF911F910F91FF90EF90DF90CF90BF9033
:1022D000AF909F908F90089583889488A588B68842
:1022E0008789803189F5BB27A72F962F852FE90194
:1022F0006A017B018F01BC01CD01680D791D8A1D2A
:102300009B1D8090000190900101A0900201B0906F
:10231000030186169706A806B90601F5F801878914
:10232000803111F5DD24EE24FF24F601EE0FFF1FAE
:10233000E753FE4F80819181B0E0A0E088839983CC
:10234000AA83BB8381E0BBCFDB01CA01C7E0B6959E
:10235000A79597958795CA95D1F7C9CF40E00E9478
:10236000C30F8111DBCFAACFE894C7F8DD24EE2498
:10237000FF24F601EE0FFF1FEE0FFF1FE753FE4F86
:1023800080819181A281B381BF70D8CF8F929F92BB
:10239000AF92BF92CF92DF92EF92FF920F931F9373
:1023A000CF93DF93EC018D8181110EC080E0DF912E
:1023B000CF911F910F91FF90EF90DF90CF90BF9042
:1023C000AF909F908F9008950B891C892D893E892D
:1023D000041715072607370748F34A015B018230C7
:1023E00031F48A869B86AC86BD8681E0E0CF81147D
:1023F0009104A104B10449F41E821F821886198633
:102400001A861B861C861D86F0CF0A851B852C85A7
:102410003D85EB8DFC8D858590E00996B901A8017D
:102420004150510961097109082E04C076956795DC
:10243000579547950A94D2F775016401E1E0CE1AE9
:10244000D108E108F10804C0F694E794D794C79442
:102450008A95D2F7C416D506E606F70620F0012BBA
:10246000022B032B11F58F89988DA98DBA8D8E8340
:102470009F83A887B9878E010A5F1F4FC114D104BB
:10248000E104F10409F4ADCF4E815F81688579855F
:1024900098018B8D9C8D0E94451191E0C91AD1083D
:1024A000E108F1088111EACF81CFC41AD50AE60A02
:1024B000F70AE1CF3F924F925F926F927F928F9295
:1024C0009F92AF92BF92CF92DF92EF92FF920F93C3
:1024D0001F93CF93DF93CDB7DEB72C970FB6F89449
:1024E000DEBF0FBECDBF5C01DC015B968D909C9082
:1024F0005C9716964D905D906D907C901997411465
:1025000051046104710409F468C0BFEF4B1A5B0AFF
:102510006B0A7B0A312CF40181859285A385B485F1
:102520009C01AD012F5F3F4F4F4F5F4F29873A8787
:102530004B875C87730162011D821E821F82188691
:10254000F40181859285A385B4852D813E814F81DB
:102550005885281739074A075B0708F056C0898550
:102560009A85AB85BC858C159D05AE05BF0550F4DD
:1025700082E0C82ED12CE12CF12C92E0492E512C76
:10258000612C712C9E012F5F3F4FB701A601C40142
:102590000E9445118823C9F189819A81AB81BC8150
:1025A000892B8A2B8B2B09F1260137019FEF491AC2
:1025B000590A690A790A2D813E814F8158852F5F1A
:1025C0003F4F4F4F5F4F2D833E834F8358873FEFE1
:1025D000C31AD30AE30AF30AB3CFF401408051804F
:1025E000628073803324339496CFC414D504E604F8
:1025F000F70409F70FEF1FEF2FEF3FE0B701A60138
:10260000C4010E94A310811119C080E02C960FB65E
:10261000F894DEBF0FBECDBFDF91CF911F910F9118
:10262000FF90EF90DF90CF90BF90AF909F908F90F2
:102630007F906F905F904F903F900895D5011696D0
:102640004D915D916D917C911997411551056105F1
:10265000710539F097018601C4010E94A3108823F7
:10266000A1F2D5011696CD92DD92ED92FC921997CA
:10267000332051F0D701C6010196A11DB11DF4010F
:1026800080839183A283B383F5018789908DA18D87
:10269000B28D892B8A2B8B2B39F48481C78AD08EFB
:1026A000E18EF28E80688483F50184818062848368
:1026B00081E0ACCF1F93CF93DF93EC01162F8C8179
:1026C00087FF2AC06E857F858889998941E00E94AD
:1026D000C30F882361F1EA8980E2E89FF0011124A9
:1026E000E753FE4F309719F18D81823040F48B898A
:1026F0009C89AD89BE89848F958FA68FB78F8F896E
:10270000988D938F828F8F89988DA98DBA8DB58B77
:10271000A48B8C818F778C83111103C08C818F7E69
:102720008C83812FDF91CF911F910C949A0F80E0C1
:10273000DF91CF911F9108951F93CF93DF93EC0109
:102740008D81813031F090E080E0DF91CF911F9159
:1027500008958C8181FFF7CF82FD1BC090E080E05F
:102760000E94100E0E94850E182F90E080E00E94BB
:10277000220E1F3F41F78C8185FF1EC08D8188236B
:1027800021F060E0CE010E945A138C818F7D8C83F2
:10279000DACF4B895C896D897E898A859B85AC857A
:1027A000BD8584179507A607B707C1F2CE010E9421
:1027B000C6118111D3CFC7CF4091C5015091C60139
:1027C0006091C7017091C801452B462B472B21F022
:1027D00080E00E94780FB7CF80618C832A853B858B
:1027E000317080E092E0821B930BAFCF9F92AF924B
:1027F000BF92CF92DF92EF92FF920F931F93CF93EE
:10280000DF9300D000D01F92CDB7DEB78C016D836F
:10281000DC0115968C911597813009F0B9C014969A
:102820008C9181FFB5C082FD9FC0D8015B96ED9170
:10283000FC915C971A96AD90BD90CD90DC901D9761
:1028400094809A94B601A50189E07695679557958D
:1028500047958A95D1F79422B1E0BB22992009F4DB
:102860009FC0D8015B96ED91FC915C971696CD9038
:10287000DD90ED90FC901997B2E0CB1AD108E108F9
:10288000F108858504C0CC0CDD1CEE1CFF1C8A956C
:10289000D2F74685578560897189C40ED51EE61E1C
:1028A000F71EC90CD11CE11CF11CA114B10409F0E4
:1028B0000AC1F801428553856485758583899489A9
:1028C000A589B689481759076A077B0708F4FBC032
:1028D00081E00E949A0F882309F45AC0C092000137
:1028E000D0920101E0920201F09203018091C401B3
:1028F00081608093C401F501E753FE4F8D81808391
:10290000F80182859385A485B5850196A11DB11D29
:1029100082879387A487B587438954896589768997
:10292000481759076A077B0738F42481838B948BF7
:10293000A58BB68B20682483D80114968C9183FDD7
:102940009FC081E090E00F900F900F900F900F903C
:10295000DF91CF911F910F91FF90EF90DF90CF907B
:10296000BF90AF909F900895F8014389548965897D
:10297000768982859385A485B585481759076A07A6
:102980007B0709F452CFC8010E94C61181114DCFB7
:1029900081E090E0D80113969C938E93129749C0E2
:1029A000D80116964D915D916D917C911997A11466
:1029B000B10409F071C0411551056105710589F532
:1029C00057968D919D910D90BC91A02D0097A105DA
:1029D000B10509F04FC0C8010E945A128823C1F204
:1029E000D8015B96ED91FC915C971696CD90DD90A9
:1029F000ED90FC901997B2E0CB1AD108E108F108EC
:102A0000858504C0CC0CDD1CEE1CFF1C8A95D2F71A
:102A10004685578560897189C40ED51EE61EF71E4E
:102A200048CF9E012F5F3F4FCF010E94451181117A
:102A300003C090E080E087CF89819A81AB81BC811F
:102A4000F801238D348DF901278948EF5FEF60E0AD
:102A500070E0203121F048EF5FEF6FEF7FE08417E7
:102A60009507A607B70730F0C8010E945A128111D6
:102A7000F8CE8ECFF80186839783A087B187F1CEF9
:102A8000F8018581882309F483CF61E0C8010E94A1
:102A90005A13811156CF7CCF6A017B01B2E0CB1A69
:102AA000D108E108F108858504C0CC0CDD1CEE1CC2
:102AB000FF1C8A95D2F74685578560897189C40EB7
:102AC000D51EE61EF71E41E0C701B6010E94C30FE6
:102AD000811111CF5DCF0895FC016370668B8481F5
:102AE000958126813781613039F0633029F09187F3
:102AF000808733872287089531872087938782874D
:102B000008952F923F924F925F926F927F928F9291
:102B10009F92AF92BF92CF92DF92EF92FF920F936C
:102B20001F93CF93DF93CDB7DEB76A970FB6F894B4
:102B3000DEBF0FBECDBF9A8F898F7A8369834A012A
:102B4000D22E18870F833701BC2CDC0159962D91AA
:102B50003C915A972115310509F015C118968D91B0
:102B60009C911997681779070CF0D7C11A968D9127
:102B70009C91481759070CF0D0C14C2C512CB6E051
:102B8000CB9E600D711D11247C876B87161617066E
:102B90000CF0C3C1EA2DF0E0FA87E98793E0EE0F6D
:102BA000FF1F9A95E1F7F88BEF87CF01840F951FF0
:102BB000181619060CF0B1C1A98DBA8D58968C91D2
:102BC000811104C0BFEABD1508F4D394A98DBA8D54
:102BD000ED91FC9111970284F385E02DCD010995CB
:102BE000B5E0DB9EC0011124E981FA81FC83EB830F
:102BF000312C212C9C0128593F4F388F2F8B4A2D87
:102C000050E05E8B4D8BEF89F88DE20DF31D449102
:102C10009E828D82D12CC12C69817A81620D731DB7
:102C20007A8B698B842F90E09C8B8B8BE98DFA8D4E
:102C3000A081B18140FF82C0F1E0BF126FC0AF122E
:102C40006DC01C96ED91FC912F813885A4014C0D2F
:102C50005D1D69897A89898D9A8D0995EB89FC8931
:102C6000F595E7954E2F5FEFC51AD50A6D817E81E8
:102C70008D899E89680F791F7E836D8398E0C916C0
:102C8000D10481F6AFEF2A1A3A0AEB81FC81E40DF8
:102C9000F51DFC83EB83F5E02F16310409F0B3CF6B
:102CA0002F81388526153705B9F0A98DBA8DED919C
:102CB000FC91B1E0BB1257C0AB1255C069817A815B
:102CC0006B5F7F4F0088F189E02D830128E030E0C1
:102CD000A401898D9A8D0995A98DBA8DED91FC91EC
:102CE00011970688F789E02DCD016A960FB6F89402
:102CF000DEBF0FBECDBFDF91CF911F910F91FF902F
:102D0000EF90DF90CF90BF90AF909F908F907F908B
:102D10006F905F904F903F902F9009941E96ED9189
:102D2000FC91EF80F88409851A8592014D815E81BE
:102D30006B817C81898D9A8D099590CF2F81388503
:102D40002615370509F48ACF31E0B31207C0A31264
:102D500005C01C96ED91FC91930178CF1E96ED91E4
:102D6000FC917301E0CF6B857C856419750906843D
:102D7000F785E02D73010F8518899201A401898DD3
:102D80009A8D0995A9CFF90134969491329745917E
:102D90005491D91AB7E0DB9E400D511D1124F90161
:102DA000259134913C8B2B8BFA0125903490FA01BC
:102DB0003296749031963491398B32966490319674
:102DC000449041E04C1518F04A1508F07FC0662D7C
:102DD000062C000C770B7C836B83842D042C000C59
:102DE000990B9E838D83A98DBA8DED91FC911197DE
:102DF0000284F385E02DCD010995512CD12CC12CF5
:102E0000EA2DF0E0FA87E9872B2D30E03C872B870D
:102E1000A401440D511D47FC5A95588F4F8B698171
:102E20007A81660D711D67FC7A957E876D87798939
:102E3000C71608F051CF2C2D30E04D815E81420F36
:102E4000531FA985BA854A9FC0014B9F900D5A9F79
:102E5000900D1124FC01E80DF91DF88BEF87852DED
:102E6000612C4F89588D420F531F5E8B4D8B671419
:102E700008F050C044244394480E877041F4C101C7
:102E80000196EB89FC89E20DF31DD4901C01D7FE5D
:102E900019C0A98DBA8DED91FC91662D70E0B1E05D
:102EA000BB1219C0AB1217C02D853E85620F731F70
:102EB0000484F585E02D2F8138854D895E89898DC3
:102EC0009A8D0995DD0C6394842DD1CF1E821D82CD
:102ED0001C821B8288CF4B815C81640F751FAB8580
:102EE000BC856A9FC0016B9F900D7A9F900D112445
:102EF00069817A81680F791F0684F785E02DEF805C
:102F0000F88409851A859D014F855889898D9A8D88
:102F10000995D8CF570CC3948ACF6A960FB6F89408
:102F2000DEBF0FBECDBFDF91CF911F910F91FF90FC
:102F3000EF90DF90CF90BF90AF909F908F907F9059
:102F40006F905F904F903F902F9008958F929F9237
:102F5000AF92CF92EF92FF920F931F93CF93DF9395
:102F6000EC01262F898D9A8D009709F051C06A30A7
:102F7000D1F41D861C868D8948E0849F9001112420
:102F80008E859F85820F931F9F878E8781E090E0BB
:102F9000DF91CF911F910F91FF90EF90CF90AF9065
:102FA0009F908F9008956D3089F3CC88AD888F897C
:102FB0008823C1F08C859D8536E0C39E800D911DD0
:102FC0001124488559854817590764F44E855F8553
:102FD0001D861C8638E0A39EC0011124840F951F16
:102FE0009F878E87EA88FB88088919894E855F85C7
:102FF0006C857D85CE010E9481152C898C859D85EF
:1030000046E0249F800D911D11249D878C87BECFA3
:103010006A3069F41D861C86FC013896E4912D897E
:103020008E859F85E29F800D911D1124ADCF6D305F
:1030300009F4ACCFFC0134963491631708F4A6CFA1
:103040003296E491E61708F4A1CFFC013296859000
:103050009490462F431B342F47E0349F800C911CE3
:103060001124F401329634913196E4913323A9F17D
:10307000EE2399F1CC88F4013596E491AD884F891F
:10308000442301F10E2E000CFF0BE30FF11DCE9E29
:10309000A001CF9E500D11246C857D85460F571FD2
:1030A00068857985641775076CF44E855F851D8684
:1030B0001C86FC013896E491AE9E400D511D1124F2
:1030C0005F874E87EA88FB88088919894E855F8566
:1030D0006C857D85CE010E948115F4013496E491C2
:1030E0002C898C859D85E29F800D911D11248DCFAB
:1030F0006F927F928F929F92AF92BF92CF92DF9208
:10310000EF92FF920F931F93CF93DF93EC016B012C
:103110005A0139014801E881F9810284F385E02DE3
:103120000995E881F9810288F389E02D87019301EF
:10313000A501B601CE010995A501480D591D4150C3
:103140005109E881F9810288F389E02D9301B601E4
:10315000CE010995E881F9810088F189E02D94017B
:10316000A501B601CE010995C60CD71CB601615068
:103170007109E881F9810088F189E02D9401A501A8
:10318000CE010995E881F9810688F789E02DCE0105
:10319000DF91CF911F910F91FF90EF90DF90CF9033
:1031A000BF90AF909F908F907F906F9009946F9297
:1031B0007F928F929F92AF92BF92CF92DF92EF92C7
:1031C000FF920F931F93CF93DF935C01EB016A0192
:1031D000490138018701DC01ED91FC916217730709
:1031E00019F5641675062CF0962D872D3A01C92E17
:1031F000D82E9601261937092F5F3F4F048CF58D85
:10320000E02DA301BE01C5010995DF91CF911F916A
:103210000F91FF90EF90DF90CF90BF90AF909F9075
:103220008F907F906F9008954615570591F426175B
:10323000370724F0892D4B01C22FD82F9E01281962
:1032400039092F5F3F4F068CF78DE02DA601B401A1
:10325000DACF0284F385E02D0995D501ED91FC913B
:103260000488F589E02D83019401A601BE01C50102
:103270000995D501ED91FC910688F789E02DC501EE
:10328000DF91CF911F910F91FF90EF90DF90CF9042
:10329000BF90AF909F908F907F906F900994EF9226
:1032A000FF920F931F93DC011A960D911C911B97AF
:1032B00018962D913C911997ED91FC9100A0F1A1E8
:1032C000E02D7B0150E040E070E060E009951F9147
:1032D0000F91FF90EF9008954F925F926F927F92BF
:1032E0008F929F92AF92BF92CF92DF92EF92FF9216
:1032F0000F931F93CF93DF936C012B015A01390178
:103300004801DC01ED91FC910284F385E02D0995E3
:10331000E201640C751CD601ED91FC91C615D70530
:103320005CF40088F189E02D87019401A501BE01BC
:10333000C60109952196EFCF0688F789E02DC601D1
:10334000DF91CF911F910F91FF90EF90DF90CF9081
:10335000BF90AF909F908F907F906F905F904F90B5
:1033600009948F929F92AF92BF92CF92DF92EF9289
:10337000FF920F931F93CF93DF93EC015B014A0100
:103380006901E881F9810284F385E02D09959501B1
:103390002C0D3D1D21503109E881F9810488F58902
:1033A000E02D78018401A401B501CE010995E881E1
:1033B000F9810688F789E02DCE01DF91CF911F9129
:1033C0000F91FF90EF90DF90CF90BF90AF909F90C4
:1033D0008F9009948F929F92AF92BF92CF92DF927B
:1033E000EF92FF920F931F93CF93DF93EC015B015A
:1033F0004A0169017801E881F9810284F385E02DB1
:103400000995C80CD91C860101501109E881F98180
:103410000488F589E02D9501A401B501CE01099537
:10342000E881F9810688F789E02DCE01DF91CF91FF
:103430001F910F91FF90EF90DF90CF90BF90AF90D2
:103440009F908F900994EF92FF920F931F93DC014E
:10345000ED91FC9100A0F1A1E02D09951F910F9134
:10346000FF90EF9008950F931F93DC01ED91FC9175
:10347000068CF78DE02D09951F910F9108950F93FC
:103480001F93DC01ED91FC91048CF58DE02D0995E5
:103490001F910F910895DC01ED91FC910084F1855D
:1034A000E02D09942F923F924F925F926F927F92FC
:1034B0008F929F92AF92BF92CF92DF92EF92FF9244
:1034C0000F931F93CF93DF9300D000D000D0CDB7E0
:1034D000DEB73C016A013E832D83FC82EB825801FA
:1034E000A41AB50AB7FE03C0B194A194B1088D80A7
:1034F0009E80861A970A97FE03C091948194910842
:103500008A149B045CF0902F812F0D811E819D8376
:103510008E839C2D8D2D6B01692F782F0C151D0529
:103520005CF09D818E817E836D83692F782F902F33
:10353000812F8601C92ED82E1601201A310A2B019F
:103540002D813E81421A530A57FE03C05194419483
:103550005108710137FE03C03FEFE31AF30AF594F7
:10356000E7948D819E81861797075CF5A1E0B0E016
:10357000BA83A983C016D1064CF1D301ED91FC9119
:103580000484F585E02D2B813C81A8016D817E812D
:103590008A149B041CF04D815E81B801C30109951A
:1035A000E418F508F7FE0AC02D813E8189819A81D1
:1035B000280F391F3E832D83E20CF31C0F5F1F4F32
:1035C000D9CF2FEF3FEF3A832983D4CF26960FB67A
:1035D000F894DEBF0FBECDBFDF91CF911F910F9149
:1035E000FF90EF90DF90CF90BF90AF909F908F9023
:1035F0007F906F905F904F903F902F900895089527
:1036000090E080E00895EF92FF920F931F93DC010A
:103610001A960D911C911B9718962D913C91199714
:10362000ED91FC9100A0F1A1E02D7B0150E040E084
:1036300070E060E009951F910F91FF90EF90089561
:103640000E94FC231F93CF93DF9385ED8093BC00F2
:103650008091550190915601A0915701B091580168
:103660000796A11DB11D23E0B695A795979587955F
:103670002A95D1F72091BC0024FD03C010929D0132
:1036800052C040915501509156016091570170917F
:103690005801452B462B472B69F30097A105B1052F
:1036A00041F02AE22A95F1F700C00197A109B1097A
:1036B000E1CF80915401C1E0C0935301882399F177
:1036C000D091B8001091BA008091BC008A7B8093A1
:1036D000BC0060E082E10E94560660E083E10E9447
:1036E000560610929D01C0939F0110929E0161E0C9
:1036F00082E10E94560661E083E10E9456068091B5
:10370000B9008E7F8093B9008091B9008D7F80933E
:10371000B90088E48093B80085E48093BC001093DE
:10372000BA00D093B800DF91CF911F9108951F92F6
:103730000F920FB60F9211242F933F938F939F9365
:10374000AF93BF938091CF039091D003A091D10309
:10375000B091D2033091CA0323E0230F2D3758F5DF
:103760000196A11DB11D2093CA038093CF039093AE
:10377000D003A093D103B093D2038091CB03909157
:10378000CC03A091CD03B091CE030196A11DB11D34
:103790008093CB039093CC03A093CD03B093CE033F
:1037A000BF91AF919F918F913F912F910F900FBE3D
:1037B0000F901F90189526E8230F0296A11DB11DAA
:1037C000D2CF1F920F920FB60F9211242F933F93D7
:1037D0004F935F936F937F938F939F93AF93BF9319
:1037E000EF93FF9384ED93E00E947807FF91EF91B0
:1037F000BF91AF919F918F917F916F915F914F9109
:103800003F912F910F900FBE0F901F9018951F9210
:103810000F920FB60F9211242F938F939F93EF93D4
:10382000FF93E091E403F091E5038081E091EA03E6
:10383000F091EB0382FD1BC090818091ED038F5FBF
:103840008F732091EE03821741F0E091ED03F0E0D9
:10385000EC52FC4F958F8093ED03FF91EF919F9178
:103860008F912F910F900FBE0F901F901895808110
:10387000F4CF1F920F920FB60F9211242F933F9304
:103880004F935F936F937F938F939F93AF93BF9368
:10389000EF93FF938091B900887F803609F44AC086
:1038A000F0F5883209F4A5C018F5803109F499C003
:1038B000B8F4882309F4F5C0883009F492C0FF9168
:1038C000EF91BF91AF919F918F917F916F915F9198
:1038D0004F913F912F910F900FBE0F901F90189511
:1038E000883109F486C0803251F780939C0114C05E
:1038F000803409F49BC040F48033B9F38833F9F67F
:1039000080939C0185ECAEC0803509F483C0883576
:1039100009F494C0883499F60E94221BD0CF8839CC
:1039200009F48AC038F5883729F050F4883611F048
:10393000803729F683E080939D0110929B0155C04A
:10394000883809F479C0803919F0803809F0B7CF88
:1039500080919B01803208F06FC0E0919B0181E073
:103960008E0F80939B018091BB00F0E0E558FE4FE5
:1039700080833BC0803B39F0D0F4803A09F477C0B3
:10398000883A09F09CCF84E080939D0110927A01DF
:1039900010927901F0E0E0E00995809179018111C0
:1039A0000FC081E0809379011092590109C0803CD9
:1039B00009F4A8CF883C09F4A5CF883B09F07FCF54
:1039C000E0917A0181E08E0F80937A01F0E0E75A6E
:1039D000FE4F80818093BB0090917A0180917901A4
:1039E00029C08091C2018093BB0085EC8093BC000C
:1039F00066CF9091C1018091C001981758F5E09170
:103A0000C10181E08E0F8093C101F0E0E056FE4FCE
:103A10008081E9CFE091C10181E08E0F8093C101E7
:103A20008091BB00F0E0E056FE4F80839091C10191
:103A30008091C0019817C8F285E8D8CFE091C10104
:103A400081E08E0F8093C1018091BB00F0E0E056D1
:103A5000FE4F808380919F0181115ECF81E0809332
:103A60009E0184EA8093BC0010929D0128CF85ECD2
:103A70008093BC0010929D0180919B01803230F4B4
:103A8000E0919B01F0E0E558FE4F108260919B01B0
:103A900070E08BE791E0F0E0E0E0099510929B0187
:103AA0000ECF10929C0138CFE4EDF3E01382128226
:103AB00088EE93E0A0E0B0E084839583A683B7838B
:103AC0008BE091E09183808385EC90E095878487FB
:103AD00084EC90E09787868780EC90E0918B808BD8
:103AE00081EC90E0938B828B82EC90E0958B848BC1
:103AF00086EC90E0978B868B118E128E138E148E2F
:103B0000E1E7F4E080E580831182E3E7F4E01582E9
:103B100016821186138682E090E0A0E0B0E08487F0
:103B20009587A687B78713A215A614A68DE191E005
:103B300093A782A717A6ECE0F5E01382128220EF8C
:103B400030E03583248380E491E097838683318756
:103B5000208793878287168A15861486178616868D
:103B600081E0858B848B2FEF3FEF338B228B318B62
:103B7000208B878B108E128E118E89E291E09183BB
:103B80008083A8EFB4E081E112968C93129780E1D4
:103B900014968C93149789E013968C93139788E06E
:103BA00015968C9315978CE291E017969C938E93C3
:103BB0001697EAE4FCE0E491F0E0EE0FFF1FE85C0A
:103BC000F34F8591949119969C938E931897E3E502
:103BD000FCE0E491F0E0EE0FFF1FE85CF34F85910D
:103BE00094911B969C938E931A97E2E5FCE0E491E6
:103BF000F0E0EE0FFF1FE85CF34F859194911D9666
:103C00009C938E931C97EBE4FCE0E491F0E0EE0FC4
:103C1000FF1FE85CF34F859194911F969C938E93C0
:103C20001E97ECE2FCE0E4915096EC935097E5E3AC
:103C3000FCE0E4915296EC935297E4E3FCE0E491CB
:103C40005196EC935197EDE2FCE0E4915396EC939E
:103C500053978AE090E08D939C931092DB0410922E
:103C6000DA041092BD041092BC040895CF93DF9340
:103C700000D01F92CDB7DEB7789484B5826084BD42
:103C800084B5816084BD85B5826085BD85B5816060
:103C900085BD80916E00816080936E0010928100DE
:103CA0008091810082608093810080918100816099
:103CB000809381008091800081608093800080915A
:103CC000B10084608093B1008091B00081608093E6
:103CD000B00080917A00846080937A0080917A00AD
:103CE000826080937A0080917A00816080937A006C
:103CF00080917A00806880937A001092C100E091F0
:103D0000E403F091E50382E08083E091E003F09129
:103D1000E1031082E091E203F091E3038FEC8083F2
:103D20001092EC03E091E803F091E90386E08083D0
:103D3000E091E603F091E703808180618083E09168
:103D4000E603F091E703808188608083E091E603D9
:103D5000F091E703808180688083E091E603F09131
:103D6000E70380818F7D808360E090E080E00E94A7
:103D7000EA087C01883024E5920739F1803244E575
:103D8000940719F18938994809F40DC160E087E674
:103D900090E00E94EA0867E4E62E63E8F62E873496
:103DA000974499F081EA90E00E946D0953E6E52E70
:103DB00059E1F52E613041E6740739F06F3F7F4FCE
:103DC000C1F5B6E2EB2EB5E1FB2E0E94BE081092C3
:103DD000280510922705F0922C05E0922B0527E587
:103DE000E21623E8F20609F4FDC308F01AC355E30E
:103DF000E51655E4F50609F4DFC308F08CC290E23D
:103E0000E91695E1F90609F4CAC308F051C244E580
:103E1000E41641E0F40609F4B3C308F0D3C089E91D
:103E2000E816F10409F4F7C3109211051092100579
:103E3000B3C38FEB90E00E9439097B0187E5E81658
:103E400083E8F80611F291E8E91694E9F90609F415
:103E5000BCCF21E1E21625E1F20609F4B6CF40E23B
:103E6000E41645E1F40609F4B0CF56E2E51655E153
:103E7000F50609F4A6CF81E8E81685E1F80609F40D
:103E8000A4CFE11494E1F90609F492C084ED90E026
:103E90000E946D097B016031734509F496CF87ED6F
:103EA00090E00E946D097B016133704809F48DCF69
:103EB0008FEE90E00E9439097B016732734909F463
:103EC00084CF8EEF90E00E946D09672F782F892FA5
:103ED00099277B0183E5E81680E2F80609F475CF9F
:103EE00084E090E00E946D097B01811126C0E114FD
:103EF00090E8F90611F58091040190910501A091D7
:103F0000060189839A83AB83AE014F5F5F4F63E005
:103F100089EB90E00E94070860E080ED90E00E944D
:103F2000EA08F9E9EF2EF12C893909F44ECF8039EE
:103F3000A9F4E0E9EE2EFE2C48CF26E2E21625E1B8
:103F4000F20609F43ECF42E5E41645E8F406A9F18D
:103F500051E1E5165CEAF50609F437CF83ED90E010
:103F60000E946D09872FE62EF72E8359823008F4C0
:103F70002CCF783909F429CF773709F426CF763159
:103F800009F423CF83EDE816F10409F41ECF93ED75
:103F9000E916F90609F419CF60E090E080E00E948C
:103FA000EA087C0112CF79E8E72E72E1F72E0DCFF7
:103FB00044E1E42E48E6F42E08CF39E8E32E37E753
:103FC000F32E03CF95E0E91695E1F90609F43CC319
:103FD00021E1E21625E1F20609F026CF83E090E028
:103FE00090932A058093290580EE91E09093130524
:103FF0008093120580E491E0909311058093100561
:1040000003E010E021E3E22E27E0F22E20912A05C2
:10401000822F82958F7090E08170992790932E0562
:1040200080932D05E114F10481F069E070E08EE6E3
:1040300095E00E943808B801C7010E94380866E080
:1040400070E088E695E00E94380860E08CE095E03A
:104050000E94A10B60E08CE095E00E94AE09809187
:104060002B0590912C058838944909F00AC11092CB
:10407000C90320EE3FEF50E040E070E060E08CE0EC
:1040800095E00E94660BF0903705E090380580912E
:10409000290580FF03C00EE2F02EE12C10E000E0C5
:1040A00030E020E050E040E070E060E08CE095E03F
:1040B0000E94F4098091290580FD10C070E060E045
:1040C00080913305909134050E94850870E060E08E
:1040D00080913505909136050E9485084398429855
:1040E00085B18C7F9E2D9370892B85B98BB18370A0
:1040F0009E2D9C7F892B8BB94198419A85B18C7FED
:104100009F2D9370892B85B98BB183709F2D9C7FD8
:10411000892B8BB94198419A429A84B18C7F84B99A
:104120008AB183708AB92091290530912A0580913E
:104130002B0590912C0526FD0EC0409A4098409882
:10414000409843B149B1409A20FD05C0893842E109
:10415000940709F0FFC28131954139F4409A4098A3
:104160004098409883B189B1409AB901647077272B
:10417000409A40984098409824FF09C393B189B170
:1041800093708C7F982B409A409A40984098409822
:1041900043B189B143708C7F482B409A409A409834
:1041A0004098409883B1E9B083705E2D5C7F852B89
:1041B000409A50E0672B09F4D5C2E82EF12CFE2C72
:1041C000EE24EE2488EFF82213E0440F551F1A95D1
:1041D000E1F7407E5770E42AF52A969596959695D4
:1041E000E92A8091C903882399F0C70135E09695A3
:1041F00087953A95E1F780729927A70156954795DB
:104200004F715527842B952B50ECE522E82AF92A8B
:10421000409A439A84B1836084B98AB18C6F8AB919
:1042200020FD14C0009116051091170501501109C9
:1042300020911405309115052150310950E040E0DE
:1042400070E060E08CE095E00E94F4098FE1E816F0
:104250008FEFF806B1F486E08983AE014F5F5F4FC0
:1042600061E08AE390E00E9407088091290590911F
:104270002A058F7E90932A058093290581E08093FB
:10428000C90361E08CE095E00E94A10B70E060E062
:104290008CE095E00E94031B00E010E00115110581
:1042A000E9F30E9464078823C9F30E940000F6CF57
:1042B00041E8E41645E1F40609F401C298F486E207
:1042C000E81685E1F80609F0AFCD83E194E090931C
:1042D0002A05809329050CE010E08FE1E82E87E0A5
:1042E000F82E94CE92E0E91696E1F90609F4DBC1C6
:1042F00087E194E123E5E21620E2F20609F094CD8D
:1043000090932A058093290503E010E047E8E42E06
:1043100046E0F42E7BCE43E8E41647E7F40609F4C2
:1043200056C108F04BC088E0E81684E5F80609F4A9
:104330008BC1F8F420E1E21623E5F20609F074CD12
:1043400083E19EE090932A058093290580EE91E019
:10435000909313058093120580E491E090931105EA
:104360008093100502E010E0BDE1EB2EB7E0FB2EDC
:104370004DCE49E0E41648E6F40609F470C154E174
:10438000E51658E6F50609F04FCD83E094E09093EA
:104390002A058093290580EE91E090931305809380
:1043A000120580E491E0909311058093100503E0DD
:1043B00010E0AAE1EA2EA7E0FA2E28CE83E9E8165B
:1043C00087E7F80609F4B3C198F429E8E21627E76D
:1043D000F20609F029CD83E194E090932A058093B9
:1043E000290501E410E0F9EDEF2EF6E0FF2E0ECEE8
:1043F00046E9E41647E7F40609F47DC151E3E51602
:1044000050E8F50609F010CD83E194E190932A0578
:104410008093290502E110E0E7ECEE2EE6E0FE2EA7
:10442000F5CD88E3E81683E9F80609F442C1D0F532
:1044300027E2E21623E9F20609F41CC1F0F452E087
:10444000E51653E9F50609F431C140F490E9E9169F
:10445000F90609F0E9CC83E194E1C6C020E2E21656
:1044600023E9F20609F4F0C045E2E41643E9F40654
:1044700009F0DACC80E091E1F4C059E2E51653E9A5
:10448000F50609F419C1B0F391E3E91693E9F906C9
:1044900031F025E3E21623E9F20609F0C5CC80E00D
:1044A00090E1DFC049E8E41644E9F40608F042C0B0
:1044B00057E8E51654E9F50608F036C181E8E81634
:1044C00084E9F80609F414C1B0F420E4E21A23E9FF
:1044D000F20A42E0E416F10408F0A6CC83E194E08D
:1044E00090932A058093290505E610E032E2E32E39
:1044F00036E0F32E8BCD56E8E51654E9F50609F0C3
:1045000093CC83E094E090932A058093290580EE74
:1045100091E0909313058093120580E491E09093CD
:104520001105809310050BE310E092EAE92E95E067
:10453000F92E6CCD85E0E81685EBF806B1F048F46D
:1045400083E194E121E1E2162CEAF20609F4D8CEE7
:104550006BCC49E0E41645EBF40609F4E8C055E0FD
:10456000E51655ECF50609F05FCC88E090E19093F4
:104570002A058093290560EB70E084EF97E00AC07C
:1045800082E090E190932A05809329056CE970E020
:1045900084E79BE00E948C09F12CE12C37CD83E16C
:1045A00094E090932A058093290506E010E09BE2B1
:1045B000E92E97E0F92E2ACD80E090E190932A052C
:1045C000809329056CE970E088ED9AE0E3CF82E002
:1045D00091E190932A058093290560E970E088E4D1
:1045E0009AE0D8CF83E094E190932A05809329053F
:1045F00080EE91E0909313058093120580E491E0A2
:10460000909311058093100502E010E075ECE72E01
:1046100076E0F72EFBCC83E194E190932A0580931A
:10462000290580EE91E0909313058093120580E4B4
:1046300091E090931105809310050DE110E068EA78
:10464000E62E66E0F62EE2CC84E090E190932A0517
:104650008093290568ED70E080E799E09BCF82E0C8
:1046600091E190932A05809329056CEC70E084EA2F
:1046700098E090CF83E094E090932A0580932905F9
:1046800080E991E0909313058093120580EF90E00C
:1046900090931105809310050EE110E05AE8E52E85
:1046A00056E0F52EB3CC83E195E02ACE83E094E08A
:1046B00027CE83E194E024CE83E096E121CE83E10E
:1046C00094E090932A058093290580EE91E09093E1
:1046D00013058093120580E491E090931105809377
:1046E000100505E410E02DEDE22E25E0F22E8ECC33
:1046F00087E094E0E6CF83E094E090932A058093EE
:10470000290580EE91E0909313058093120580E4D3
:1047100091E090931105809310050BE210E087E77C
:10472000E82E85E0F82E72CC83E194E0E6CF80E0BD
:1047300090E190932A058093290560EC70E084E372
:1047400097E00E948C0980E991E090931305809393
:10475000120522CF409A40984098409843B149B101
:10476000409AF9CCE92EF12CFE2CEE24EE2498EFA1
:10477000F922A3E0440F551FAA95E1F7407E577038
:10478000E42AF52A869586958695E82A2ACDE3B00F
:1047900099B1409A409A40984098409883B149B165
:1047A00083704C7F842B409A4E2D4370E42E9C7F67
:1047B000E92AFE2CE82E23FF03C0F826EF24FE246E
:1047C000672B09F40ECDC701807E9770A701452F96
:1047D0005527469546954695842B952BFE2CEE2421
:1047E000FF0CFF0CFF0CE82AF92AFBCCEE0FFF1F91
:1047F0000590F491E02D099481E090E0F8940C94F8
:104800000124F894FFCFFFFFFFFFFF835700000054
:10481000009A07FA062707E707580736074A0700EE
:10482000000000F613FA069C13FF1A00000000A611
:1048300017FA06001BFF1A660B540E4B1A231A3F79
:104840001A331A521A540EA10BAE09FC0DE90DA42D
:084850000A031BD718781800B9
:107E0000112484B714BE81FFF0D085E080938100F7
:107E100082E08093C00088E18093C10086E0809377
:107E2000C20080E18093C4008EE0C9D0259A86E02C
:107E300020E33CEF91E0309385002093840096BBD3
:107E4000B09BFECF1D9AA8958150A9F7CC24DD24C4
:107E500088248394B5E0AB2EA1E19A2EF3E0BF2EE7
:107E6000A2D0813461F49FD0082FAFD0023811F036
:107E7000013811F484E001C083E08DD089C08234E0
:107E800011F484E103C0853419F485E0A6D080C0E4
:107E9000853579F488D0E82EFF2485D0082F10E0AE
:107EA000102F00270E291F29000F111F8ED06801E7
:107EB0006FC0863521F484E090D080E0DECF843638
:107EC00009F040C070D06FD0082F6DD080E0C81688
:107ED00080E7D80618F4F601B7BEE895C0E0D1E017
:107EE00062D089930C17E1F7F0E0CF16F0E7DF06D8
:107EF00018F0F601B7BEE89568D007B600FCFDCFD4
:107F0000A601A0E0B1E02C9130E011968C91119780
:107F100090E0982F8827822B932B1296FA010C0160
:107F200087BEE89511244E5F5F4FF1E0A038BF0790
:107F300051F7F601A7BEE89507B600FCFDCF97BE46
:107F4000E89526C08437B1F42ED02DD0F82E2BD052
:107F50003CD0F601EF2C8F010F5F1F4F84911BD097
:107F6000EA94F801C1F70894C11CD11CFA94CF0C13
:107F7000D11C0EC0853739F428D08EE10CD085E9AC
:107F80000AD08FE07ACF813511F488E018D01DD067
:107F900080E101D065CF982F8091C00085FFFCCF94
:107FA0009093C60008958091C00087FFFCCF809118
:107FB000C00084FD01C0A8958091C6000895E0E648
:107FC000F0E098E1908380830895EDDF803219F02E
:107FD00088E0F5DFFFCF84E1DECF1F93182FE3DFCA
:107FE0001150E9F7F2DF1F91089580E0E8DFEE27F6
:047FF000FF270994CA
:027FFE00040479
:00000001FF
