:100000000C94D8020C9400030C9400030C9400038D
:100010000C9400030C9400030C9400030C94000354
:100020000C9400030C9400030C9400030C94000344
:100030000C9400030C9400030C9400030C94000334
:100040000C9493160C9400030C9403170C94DD1677
:100050000C9400030C9400030C9400030C94000314
:100060000C9435170C94000300000000003E5B4F19
:100070005B3E3E6B4F6B3E1C3E7C3E1C183C7E3C08
:10008000181C577D571C1C5E7F5E1C00183C180016
:10009000FFE7C3E7FF0018241800FFE7DBE7FF30A6
:1000A000483A060E2629792926407F050507407F14
:1000B00005253F5A3CE73C5A7F3E1C1C08081C1C87
:1000C0003E7F14227F22145F5F005F5F06097F017D
:1000D0007F006689956A606060606094A2FFA29468
:1000E00008047E040810207E201008082A1C080836
:1000F0001C2A08081E101010100C1E0C1E0C303884
:100100003E3830060E3E0E06000000000000005F84
:1001100000000007000700147F147F14242A7F2AA0
:100120001223130864623649562050000807030062
:10013000001C2241000041221C002A1C7F1C2A08AE
:10014000083E080800807030000808080808000011
:1001500060600020100804023E5149453E00427F85
:10016000400072494949462141494D331814127FD4
:100170001027454545393C4A494931412111090774
:100180003649494936464949291E000014000000F5
:1001900040340000000814224114141414140041C7
:1001A00022140802015909063E415D594E7C121184
:1001B000127C7F494949363E414141227F414141BC
:1001C0003E7F494949417F090909013E4141517337
:1001D0007F0808087F00417F41002040413F017FA8
:1001E000081422417F404040407F021C027F7F0470
:1001F00008107F3E4141413E7F090909063E4151B9
:10020000215E7F09192946264949493203017F01A8
:10021000033F4040403F1F2040201F3F4038403FA9
:10022000631408146303047804036159494D4300BF
:100230007F4141410204081020004141417F0402F6
:10024000010204404040404000030708002054548D
:1002500078407F284444383844444428384444286B
:100260007F385454541800087E090218A4A49C78BE
:100270007F0804047800447D40002040403D007F1A
:100280001028440000417F40007C047804787C08FA
:100290000404783844444438FC18242418182424CE
:1002A00018FC7C08040408485454542404043F44B3
:1002B000243C4040207C1C2040201C3C4030403CE2
:1002C00044281028444C9090907C4464544C440042
:1002D00008364100000077000000413608000201A6
:1002E0000204023C2623263C1EA1A161123A404092
:1002F000207A38545455592155557941225454780F
:1003000042215554784020545579400C1E527212A7
:100310003955555559395454545939555454580030
:1003200000457C410002457D420001457C407D1234
:1003300011127DF0282528F07C5455450020545496
:100340007C547C0A097F4932494949323A44444441
:100350003A324A4848303A4141217A3A424020787C
:10036000009DA0A07D3D4242423D3D4040403D3C7D
:1003700024FF2424487E4943662B2FFC2F2BFF09A2
:1003800029F620C0887E0903205454794100004496
:100390007D413048484A32384040227A007A0A0A81
:1003A000727D0D19317D2629292F282629292926F4
:1003B00030484D4020380808080808080808382F39
:1003C00010C8ACBA2F102834FA00007B00000814C3
:1003D0002A142222142A14085500550055AA55AA99
:1003E00055AAFF55FF55FF000000FF00101010FF39
:1003F00000141414FF001010FF00FF1010F010F094
:10040000141414FC001414F700FF0000FF00FF1484
:1004100014F404FC141417101F10101F101F1414D0
:10042000141F00101010F0000000001F101010101A
:100430001F10101010F010000000FF10101010100E
:1004400010101010FF10000000FF140000FF00FF4C
:1004500000001F10170000FC04F4141417101714E8
:1004600014F404F40000FF00F7141414141414140A
:10047000F700F7141414171410101F101F1414147D
:10048000F4141010F010F000001F101F0000001FE7
:1004900014000000FC140000F010F01010FF10FF1A
:1004A000141414FF141010101F00000000F010FFAF
:1004B000FFFFFFFFF0F0F0F0F0FFFFFF0000000093
:1004C00000FFFF0F0F0F0F0F3844443844FC4A4A17
:1004D0004A347E02020606027E027E0263554941CC
:1004E000633844443C04407E201E2006027E020203
:1004F00099A5E7A5991C2A492A1C4C7201724C3017
:100500004A4D4D303048784830BC625A463D3E49ED
:100510004949007E0101017E2A2A2A2A2A44445F91
:10052000444440514A444040444A51400000FF0185
:1005300003E080FF000008086B6B08361236243693
:10054000060F090F060000181800000010100030F8
:1005500040FF0101001F01011E00191D1712003C80
:100560003C3C3C000000000000000000250028008A
:100570002B00040404040404040402020202020224
:100580000303030303030102040810204080010257
:1005900004081020010204081020000000080002D6
:1005A00001000003040700000000000000005018D4
:1005B00011241FBECFEFD8E0DEBFCDBF11E0A0E019
:1005C000B1E0E2E3F2E302C005900D92AE34B10770
:1005D000D9F724E0AEE4B1E001C01D92AB3EB20712
:1005E000E1F712E0C8EDD2E004C02197FE010E94BD
:1005F0000C19C73DD107C9F70E94BE180C941719F2
:100600000C94000090E0FC01E656FA4F2491FC01A6
:10061000EA57FA4F3491FC01EE58FA4FE491EE2379
:10062000C9F0222339F0233001F1A8F4213019F167
:10063000223029F1F0E0EE0FFF1FE859FA4FA591A3
:10064000B4918FB7F894EC91611126C030953E2398
:100650003C938FBF08952730A9F02830C9F024308B
:1006600049F7809180008F7D03C0809180008F7753
:1006700080938000DFCF84B58F7784BDDBCF84B5D6
:100680008F7DFBCF8091B0008F778093B000D2CF69
:100690008091B0008F7DF9CF3E2BDACFAF92BF9221
:1006A000CF92DF92EF92FF920F931F93CF93DF933E
:1006B0006C017B018B01040F151FEB015E01AE186D
:1006C000BF08C017D10759F06991D601ED91FC918F
:1006D0000190F081E02DC6010995892B79F7C501BC
:1006E000DF91CF911F910F91FF90EF90DF90CF900E
:1006F000BF90AF900895FC01538D448D252F30E0BD
:10070000842F90E0821B930B541710F0CF9608951E
:1007100001970895FC01918D828D981761F0A28D4B
:10072000AE0FBF2FB11D5D968C91928D9F5F9F7311
:10073000928F90E008958FEF9FEF0895FC01918DC7
:10074000828D981731F0828DE80FF11D858D90E034
:1007500008958FEF9FEF0895FC01918D228D892FD1
:1007600090E0805C9F4F821B91098F7399270895B9
:100770008EEC93E00E94AC0321E0892B09F420E089
:10078000822F089580E090E0892B29F00E94B80321
:1007900081110C9400000895FC01A48DA80FB92FBD
:1007A000B11DA35ABF4F2C91848D90E001968F7399
:1007B0009927848FA689B7892C93A089B1898C91B8
:1007C000837080648C93938D848D981306C0028807
:1007D000F389E02D80818F7D80830895EF92FF92D1
:1007E0000F931F93CF93DF93EC0181E0888F9B8D54
:1007F0008C8D98131AC0E889F989808185FF15C00E
:100800009FB7F894EE89FF896083E889F989808130
:100810008370806480839FBF81E090E0DF91CF91FF
:100820001F910F91FF90EF900895F62E0B8D10E021
:100830000F5F1F4F0F731127E02E8C8D8E110CC090
:100840000FB607FCFACFE889F989808185FFF5CFDB
:10085000CE010E94CC03F1CFEB8DEC0FFD2FF11DEB
:10086000E35AFF4FF0829FB7F8940B8FEA89FB8918
:1008700080818062CFCFCF93DF93EC01888D882376
:10088000B9F0AA89BB89E889F9898C9185FD03C0F3
:10089000808186FD0DC00FB607FCF7CF8C9185FFD8
:1008A000F2CF808185FFEDCFCE010E94CC03E9CF4E
:1008B000DF91CF9108954398429825B12C7F392F2D
:1008C0003370232B25B92BB123709C7F922B9BB9BE
:1008D0004198419A95B19C7F282F2370922B95B90E
:1008E0009BB193708C7F892B8BB94198419A429A26
:1008F000FA01615078F0219195B19C7F822F83702D
:10090000982B95B98BB183702C7F822B8BB9419832
:10091000419AEFCF439A08954398429825B12C7F8E
:10092000392F3370232B25B92BB123709C7F922B49
:100930009BB94198419A95B19C7F282F2370922BA7
:1009400095B99BB193708C7F892B8BB94198419A53
:10095000429A85B18C7F972F9370892B85B98BB183
:1009600083707C7F782B7BB94198419A85B18C7FCD
:10097000962F9370892B85B98BB183706C7F682B10
:100980006BB94198419A439A0895FC01262F358D01
:10099000868D82958170982F9627692F70E072A3BB
:1009A00061A330FF0CC0821307C080E290E050E0EA
:1009B00040E060E00C945B0481E290E0F8CF878D2A
:1009C00090A1873222E99207C0F4853222E992078A
:1009D00058F4803224E59207B9F0833927E792076B
:1009E00099F084359140A1F4660F771F660F771F49
:1009F000636187E090E00C948C04863223E99207CF
:100A000019F08930954B21F4626081E094E0F3CFD6
:100A100081E690E0F0CF8F929F92AF92BF92CF92FB
:100A2000DF92EF92FF920F931F93CF93DF9300D04B
:100A300000D0CDB7DEB77C014B015A016901FC0142
:100A4000878D90A18732F3E99F0709F040C0F70135
:100A50008689823099F5F0E2AF0EB11C005E1F4F1F
:100A6000F701858D80FF4AC085A599828A82DB8245
:100A7000CC82AE014F5F5F4F64E090E00E945B0468
:100A8000F70181A9B982AA821B830C83AE014F5F53
:100A90005F4F64E090E00E945B040F900F900F9016
:100AA0000F90DF91CF911F910F91FF90EF90DF900A
:100AB000CF90BF90AF909F908F900895833081F634
:100AC00020E2820E911C80E2C80ED11CC9CF863272
:100AD000954131F6F701868980FFC2CFC801841B9A
:100AE000950B19F40F5F1F4FBBCF6217730709F007
:100AF000B7CF6B01C80ED91E8A01B2CFB40187A14E
:100B000090A50E948C04B501F70181A592A50E94D1
:100B10008C04C814D90421F40A151B0509F4BDCFAF
:100B2000F701858D85FF08C0868980FF1EC0102FC4
:100B30000027A02AB12A8501B401F70185A596A551
:100B40000E948C04B501F70181A992A90E948C042E
:100B5000B601F70187A590A90E948C04B801F7019E
:100B600083A994A90E948C0498CFDC2CCC248C28D7
:100B70009D286401E1CFAF92BF92CF92DF92EF92B6
:100B8000FF920F931F93CF93DF93EC0137FF05C0C4
:100B9000620F731F319521953109260F371F77FF9B
:100BA00002C070E060E088859985281739070CF449
:100BB000C9016C01C61AD70A17FF05C0400F511FA3
:100BC000119501951109040F151F57FF02C050E040
:100BD00040E02A853B85021713070CF49801590160
:100BE000A41AB50A8901015011099C01215031094B
:100BF000CE010E940B05439842983BA58CA525B1D8
:100C00002C7F982F9370292B25B99BB193708C7FE3
:100C1000982B9BB94198419A95B19C7F832F837003
:100C2000982B95B98BB183703C7F832B8BB94198FE
:100C3000419A429ACA14DB042CF09A2D8B2D56014E
:100C4000C92ED82E9F2D93702F2D2C7FF22E4E2D36
:100C500043708E2D8C7FE82E1C141D04E4F4950146
:100C600085B18C7F892B85B98BB183708F298BB926
:100C70004198419A85B18C7F842B85B98BB1837063
:100C80008E298BB94198419A2150310949F721E0C9
:100C9000C21AD108E1CF439A8D8D80FF08C08F8D95
:100CA00098A18632954191F48E8980FF0FC00A8504
:100CB0001B8501501109288539852150310950E0E3
:100CC00040E070E060E0CE010E940B05DF91CF9123
:100CD0001F910F91FF90EF90DF90CF90BF90AF905A
:100CE0000895EF92FF920F931F93CF93DF93EC0140
:100CF00077FD1CC057FD1AC0E885F9856E177F0780
:100D0000ACF4EA85FB854E175F0784F479018A010C
:100D10009B010E940B05B7018BA59CA5DF91CF918C
:100D20001F910F91FF90EF900C948C04DF91CF9165
:100D30001F910F91FF90EF900895EF92FF920F9304
:100D40001F93CF93DF93CDB7DEB72A970FB6F894F2
:100D5000DEBF0FBECDBF7C01862F8370F701868B6F
:100D6000962F917060FFF1C026813781F70131879E
:100D70002087992309F4ECC024813581F70133875A
:100D80002287823009F4E9C0833009F4E8C0813059
:100D900009F4E1C088E48A87F701258D368D30FF9C
:100DA00003C08A8580588A8731FF04C08A8590E411
:100DB00089278A8733FF04C08A8598E089278A8734
:100DC000F701878D90A120FFFAC08431F8E69F07D4
:100DD00009F0C7C09A85892F88728A871F82892F58
:100DE00085958074282F2260892F90E095958795AE
:100DF00080729927822B88878BE38987AE01495FB0
:100E00005F4F63E086EB90E00E945B042AE230E0F3
:100E1000F70130A727A38BE290E092A781A74CE2CD
:100E200050E054A743A736A725A730AB27A792AB1E
:100E300081AB94AB83ABAE01465F5F4F61E086E36D
:100E400090E00E945B048A8590E0F70194A383A35D
:100E5000F701868980FF1CC0858D968D92FD18C094
:100E600087A190A521A532A530A727A392A781A786
:100E700085A596A521A932A936A725A792AB81AB56
:100E800087A590A923A934A930AB27A794AB83AB3E
:100E9000F701028513850150110920853185215004
:100EA000310950E040E070E060E0C7010E940B05AE
:100EB000F70166817781878D90A110E000E020E046
:100EC0008732F3E99F0769F4F7012689225010E081
:100ED00000E0223010F400E210E020E230E0201BBD
:100EE000310BF701458D40FF24C119820A837B83B2
:100EF0006C831D822E83AE014F5F5F4F66E083E3FC
:100F000090E00E945B0419820A83AE014F5F5F4F3D
:100F100062E087E390E00E945B04F701858D80FF2B
:100F200007C050E040E060E083E190E00E945B0495
:100F30002A960FB6F894DEBF0FBECDBFDF91CF91DA
:100F40001F910F91FF90EF900895248135810ECF6E
:100F50002681378113CF88E21ECF88E91CCF88EF26
:100F60001ACF833629E1920749F0813844E9940782
:100F700029F08131E5E19E0709F048CF2A8527FF56
:100F800002C021602A872A8526FF02C022602A87A4
:100F90008336F9E19F0721F48A858F738A8736CFDC
:100FA000813824E9920719F48A858F72F7CF81314D
:100FB000954109F02BCF8A858F7E806CEFCF6A85B3
:100FC000262F062E000C330B8339F7E79F0761F0BD
:100FD00008F042C08435E1E09E0709F46AC080321F
:100FE000F4E59F0709F041C040E052E0F70150A747
:100FF00047A341E052E052A741A742E052E054A784
:1010000043A740E152E056A745A741E152E050AB6B
:1010100047A742E152E052AB41AB43E152E054AB4F
:1010200043AB222730788632F3E99F0729F060E04E
:101030007AE68032944511F460E075E3622B732BFD
:1010400080E094E00E948C046A85F4E06F9FB00118
:1010500011246627717055C0863243E9940721F246
:101060008930E5EB9E0709F4BFCF80E290E0F701FD
:1010700090A787A381E290E092A781A782E290E007
:1010800094A783A780E590E096A785A781E590E0E7
:1010900090AB87A782E590E092AB81AB83E590E0CF
:1010A00094AB83ABB90166277078776280E690E0F5
:1010B000C9CF87E390E0F70196A785A786E390E084
:1010C00090AB87A789E390E092AB81AB88E390E097
:1010D00094AB83AB80E290E090A787A381E290E09D
:1010E00092A781A782E290E094A783A7F4E06F9F84
:1010F000B001112466277170222732702862622B9A
:10110000732B81E090E00E948C048A85682F70E048
:1011100075956795759567956870772783FD7061FC
:101120006063F70174A363A383E090E00E948C04E2
:101130008FCE8339F7E79F0789F1F8F4803244E5D1
:10114000940761F18338E7E79E07A1F18435914068
:10115000E9F4600F711F6150710981E390E00E9412
:101160008C04B80182E390E00E948C0470E060E09F
:1011700083E390E00E948C04DBCE863223E9920761
:1011800069F048F485529249029718F3F70161A17A
:1011900072A1626012C08930954BC1F7F70161A15D
:1011A00072A1626081E094E00E948C04B80184E046
:1011B00094E0E0CFF70161A172A181E690E00E9486
:1011C0008C04B8018AE690E0D5CFEF92FF920F939E
:1011D0001F93DC011A960D911C911B9718962D9167
:1011E0003C911997ED91FC9100A0F1A1E02D7B01BC
:1011F00050E040E070E060E009951F910F91FF9092
:10120000EF900895EF92FF920F931F93DC01ED9101
:10121000FC9100A0F1A1E02D780101E010E009951A
:101220001F910F91FF90EF900895EF92FF920F930F
:101230001F93DC01ED91FC9100A0F1A1E02D78015C
:10124000890121E030E009951F910F91FF90EF9007
:1012500008952091BF01211109C021E02093BF0111
:1012600030916B0420916C043CBD2DBD60E0FC010D
:1012700084810C94020361E0FC0184810E940203DA
:101280008091BF0181111092BF01089520917501D5
:10129000260F3327331F21323105ECF420919901B9
:1012A000FC0190E080E0243069F082E00895A09194
:1012B00075012191AC014B5A5E4FA40FB52FB11DA2
:1012C0002C930196861798F380917501680F6093AF
:1012D000750180E0089581E0089508958FEF9FEFF4
:1012E00008958FEF9FEF089580914E0190E09195C2
:1012F000819591090895CF93DF93CB01EA01642F83
:101300000E944609CE01DF91CF910895CF93DF93DC
:101310001F92CDB7DEB7698361E0CE0101960E94CE
:10132000460981E090E00F90DF91CF9108958EBD46
:1013300000000DB407FEFDCF8EB508958FEF0C941D
:1013400097090F931F93CF93DF938C012FB7F894D6
:101350008091CA039091CB03A091CC03B091CD03AF
:101360002FBFEC010E949E098F3FB1F02FB7F89478
:101370008091CA039091CB03A091CC03B091CD038F
:101380002FBF8C1B9D0B8017910760F380E0DF91CE
:10139000CF911F910F91089581E0F9CFCF92DF9205
:1013A000EF92FF920F931F93CF93DF93EC01162FD1
:1013B00069017A018E81882389F08F8198859C014B
:1013C0002F5F3F4F38872F838230924018F40E945E
:1013D0009E09F3CFCE010E943B091E82CE010E94DE
:1013E00029098CE291E00E94A109812F80640E946A
:1013F000970908E110E0D701C601002E04C0B69598
:10140000A795979587950A94D2F70E949709085057
:101410001109083F8FEF180771F78FEF0E949709A6
:1014200010E00E949E098A8787FF04C01F3F11F0C9
:101430001F5FF7CFDF91CF911F910F91FF90EF903A
:10144000DF90CF900895CF92DF92EF92FF920F93AB
:10145000CF93DF93EC01690182E1411551056105EC
:10146000710599F08B85833039F089E0440F551F61
:10147000661F771F8A95D1F79A01AB0168E1CE010B
:101480000E94CE09882319F084E08D832DC08EEF51
:101490000E94970976018EEFD81AF70181917F019A
:1014A0000E949709EC14FD04C1F78FEF0E94970981
:1014B0008FEF0E9497090E949E098A878F7185305D
:1014C00071F4011116C0CE010E943B0981E0DF9149
:1014D000CF910F91FF90EF90DF90CF90089581E131
:1014E0008D83CE010E943B09CE010E943B0980E022
:1014F000EECF88E592E00E94A109811102C085E14A
:10150000C4CF20E030E0A9016DE0CE010E94CE09F9
:10151000882311F084E1B9CF0E949E098111FACF8E
:10152000D2CF0F934091C1015091C2016091C3018C
:101530007091C401411551056105710589F0082FAD
:1015400025EC31E090E080E00E94230A882349F0F6
:101550001092C1011092C2011092C3011092C401F5
:1015600081E00F9108950F93CF93C82F8091C00110
:10157000811105C0C1E08C2FCF910F91089540914A
:1015800000015091010160910201709103010C2F43
:1015900025EC31E090E080E00E94230A811102C036
:1015A000C0E0E9CFCC2331F381E00E94910A882387
:1015B000B9F31092C001DFCFAF92BF92CF92DF920A
:1015C000EF92FF921F93CF93DF936B017C01142F57
:1015D0008091000190910101A0910201B09103015D
:1015E0008C159D05AE05BF0509F4BFC081E00E94C2
:1015F000B30A8823E1F1809106008823A1F080914D
:10160000000090910100A0910200B0910300C81663
:10161000D906EA06FB0639F480910700909108008C
:10162000892B09F461C0C0920000D0920100E092C1
:101630000200F092030080910B00A7019601833015
:1016400039F099E0220F331F441F551F9A95D1F7A7
:1016500061E190E080E00E94CE09882391F083E070
:101660008093050090E080E00E943B0980E0DF91DC
:10167000CF911F91FF90EF90DF90CF90BF90AF90F0
:1016800008952FB7F8948091CA039091CB03A0914D
:10169000CC03B091CD032FBFEC010E949E09809333
:1016A0000A008F3FC1F42FB7F8948091CA0390913C
:1016B000CB03A091CC03B091CD032FBF8C1B9D0B0E
:1016C0008D32914050F38FE08093050090E080E0F0
:1016D0000E943B09C7CF8E3FC1F5109208001092BF
:1016E000070081E080930600C5ECD1E085ECA82ED0
:1016F00083E0B82E0E949E098993AC16BD06D1F7EF
:1017000080910700909108009E5F9093080080935D
:10171000070020910900222319F081159240E8F07A
:10172000809106008823C9F08091070090910800FD
:101730009C012F5F3F4F30930800209307008230B9
:10174000924028F40E949E09EFCF8DE0BDCF90E03B
:1017500080E00E943B0910920600C0920001D092E6
:101760000101E0920201F09203014091C001412B7E
:101770004093C00181E07BCF4F925F926F927F9246
:101780008F929F92AF92BF92CF92DF92EF92FF9291
:101790000F931F93CF93DF93EC0142305105610506
:1017A000710590F480E0DF91CF911F910F91FF9030
:1017B000EF90DF90CF90BF90AF909F908F907F90F1
:1017C0006F905F904F90089589859A85AB85BC8511
:1017D0000196A11DB11D84179507A607B70710F341
:1017E000CB88DC88ED88FE888F89803109F042C083
:1017F000BB27A72F962F852F480159012A013B01AE
:10180000C80ED91EEA1EFB1E8091000190910101B5
:10181000A0910201B0910301C816D906EA06FB06A1
:1018200099F58F898031C1F5B301A201552766274B
:101830007727440F551F4B535E4FFA0191828082E8
:101840008091C00181608093C0018A89823080F0DC
:101850008D819E81AF81B8858C0D9D1DAE1DBF1DF4
:101860008093C1019093C201A093C301B093C401BE
:1018700081E099CFDB01CA01E7E0B695A79597957E
:101880008795EA95D1F7B8CF40E0C701B6010E942D
:10189000DC0A8111C6CF86CFB301A2014F7755274D
:1018A00066277727440F551F440F551F4B535E4F34
:1018B000FA0180829182A282B382C2CF8F929F92DC
:1018C000AF92BF92CF92DF92EF92FF920F931F934E
:1018D000CF93DF93FC0181859285A385B485019622
:1018E000A11DB11D84179507A607B70770F480E006
:1018F000DF91CF911F910F91FF90EF90DF90CF90EC
:10190000BF90AF909F908F90089583889488A5880A
:10191000B6888789803189F5BB27A72F962F852F19
:10192000E9016A017B018F01BC01CD01680D791DC0
:101930008A1D9B1D8090000190900101A0900201E2
:10194000B090030186169706A806B90601F5F801BE
:101950008789803111F5DD24EE24FF24F601EE0F96
:10196000FF1FEB53FE4F80819181B0E0A0E08883A0
:101970009983AA83BB8381E0BBCFDB01CA01C7E0A7
:10198000B695A79597958795CA95D1F7C9CF40E0A9
:101990000E94DC0A8111DBCFAACFE894C7F8DD24CE
:1019A000EE24FF24F601EE0FFF1FEE0FFF1FEB5397
:1019B000FE4F80819181A281B381BF70D8CF8F9279
:1019C0009F92AF92BF92CF92DF92EF92FF920F93CE
:1019D0001F93CF93DF93EC018D8181110EC080E0C6
:1019E000DF91CF911F910F91FF90EF90DF90CF90FB
:1019F000BF90AF909F908F9008950B891C892D897F
:101A00003E89041715072607370748F34A015B018B
:101A1000823031F48A869B86AC86BD8681E0E0CF39
:101A200081149104A104B10449F41E821F82188616
:101A300019861A861B861C861D86F0CF0A851B8593
:101A40002C853D85EB8DFC8D858590E00996B9014F
:101A5000A8014150510961097109082E04C0769509
:101A60006795579547950A94D2F775016401E1E0AF
:101A7000CE1AD108E108F10804C0F694E794D7948F
:101A8000C7948A95D2F7C416D506E606F70620F065
:101A9000012B022B032B11F58F89988DA98DBA8DFF
:101AA0008E839F83A887B9878E010A5F1F4FC11459
:101AB000D104E104F10409F4ADCF4E815F81688562
:101AC000798598018B8D9C8D0E945E0C91E0C91ADE
:101AD000D108E108F1088111EACF81CFC41AD50AF3
:101AE000E60AF70AE1CF3F924F925F926F927F92A0
:101AF0008F929F92AF92BF92CF92DF92EF92FF921E
:101B00000F931F93CF93DF93CDB7DEB72C970FB60C
:101B1000F894DEBF0FBECDBF5C01DC015B968D90FB
:101B20009C905C9716964D905D906D907C90199767
:101B3000411451046104710409F468C0BFEF4B1AE9
:101B40005B0A6B0A7B0A312CF40181859285A3859F
:101B5000B4859C01AD012F5F3F4F4F4F5F4F2987E9
:101B60003A874B875C87730162011D821E821F8248
:101B70001886F40181859285A385B4852D813E81E7
:101B80004F815885281739074A075B0708F056C068
:101B900089859A85AB85BC858C159D05AE05BF05ED
:101BA00050F482E0C82ED12CE12CF12C92E0492E89
:101BB000512C612C712C9E012F5F3F4FB701A60164
:101BC000C4010E945E0C8823C9F189819A81AB818E
:101BD000BC81892B8A2B8B2B09F1260137019FEFC2
:101BE000491A590A690A790A2D813E814F8158851F
:101BF0002F5F3F4F4F4F5F4F2D833E834F8358875B
:101C00003FEFC31AD30AE30AF30AB3CFF4014080CB
:101C10005180628073803324339496CFC414D504EA
:101C2000E604F70409F70FEF1FEF2FEF3FE0B701CE
:101C3000A601C4010E94BC0B811119C080E02C9642
:101C40000FB6F894DEBF0FBECDBFDF91CF911F91CD
:101C50000F91FF90EF90DF90CF90BF90AF909F904B
:101C60008F907F906F905F904F903F900895D50137
:101C700016964D915D916D917C9119974115510585
:101C80006105710539F097018601C4010E94BC0B02
:101C90008823A1F2D5011696CD92DD92ED92FC92A9
:101CA0001997332051F0D701C6010196A11DB11D2E
:101CB000F40180839183A283B383F5018789908D9A
:101CC000A18DB28D892B8A2B8B2B39F48481C78A05
:101CD000D08EE18EF28E80688483F50184818062EB
:101CE000848381E0ACCF1F93CF93DF93EC01162F59
:101CF0008C8187FF2AC06E857F858889998941E01C
:101D00000E94DC0A882361F1EA8980E2E89FF00101
:101D10001124EB53FE4F309719F18D81823040F43E
:101D20008B899C89AD89BE89848F958FA68FB78F4B
:101D30008F89988D938F828F8F89988DA98DBA8D79
:101D4000B58BA48B8C818F778C83111103C08C8110
:101D50008F7E8C83812FDF91CF911F910C94B30ADA
:101D600080E0DF91CF911F9108951F93CF93DF9370
:101D7000EC018D81813031F090E080E0DF91CF91F6
:101D80001F9108958C8181FFF7CF82FD1BC090E0E9
:101D900080E00E9429090E949E09182F90E080E0AF
:101DA0000E943B091F3F41F78C8185FF1EC08D813A
:101DB000882321F060E0CE010E94730E8C818F7D1C
:101DC0008C83DACF4B895C896D897E898A859B8576
:101DD000AC85BD8584179507A607B707C1F2CE016C
:101DE0000E94DF0C8111D3CFC7CF4091C101509128
:101DF000C2016091C3017091C401452B462B472B52
:101E000021F080E00E94910AB7CF80618C832A85FF
:101E10003B85317080E092E0821B930BAFCF9F92A5
:101E2000AF92BF92CF92DF92EF92FF920F931F93E8
:101E3000CF93DF9300D000D01F92CDB7DEB78C01D7
:101E40006D83DC0115968C911597813009F0B9C02E
:101E500014968C9181FFB5C082FD9FC0D8015B961E
:101E6000ED91FC915C971A96AD90BD90CD90DC9071
:101E70001D9794809A94B601A50189E0769567959F
:101E8000579547958A95D1F79422B1E0BB229920C6
:101E900009F49FC0D8015B96ED91FC915C97169672
:101EA000CD90DD90ED90FC901997B2E0CB1AD1085F
:101EB000E108F108858504C0CC0CDD1CEE1CFF1C7C
:101EC0008A95D2F74685578560897189C40ED51EDB
:101ED000E61EF71EC90CD11CE11CF11CA114B104B3
:101EE00009F00AC1F80142855385648575858389A7
:101EF0009489A589B689481759076A077B0708F4AA
:101F0000FBC081E00E94B30A882309F45AC0C09242
:101F10000001D0920101E0920201F0920301809150
:101F2000C00181608093C001F501EB53FE4F8D81AC
:101F30008083F80182859385A485B5850196A11DCE
:101F4000B11D82879387A487B587438954896589A2
:101F50007689481759076A077B0738F42481838BF1
:101F6000948BA58BB68B20682483D80114968C9112
:101F700083FD9FC081E090E00F900F900F900F9035
:101F80000F90DF91CF911F910F91FF90EF90DF9015
:101F9000CF90BF90AF909F900895F80143895489E6
:101FA0006589768982859385A485B5854817590703
:101FB0006A077B0709F452CFC8010E94DF0C811128
:101FC0004DCF81E090E0D80113969C938E931297A9
:101FD00049C0D80116964D915D916D917C911997EC
:101FE000A114B10409F071C04115510561057105D5
:101FF00089F557968D919D910D90BC91A02D0097DC
:10200000A105B10509F04FC0C8010E94730D8823D6
:10201000C1F2D8015B96ED91FC915C971696CD903C
:10202000DD90ED90FC901997B2E0CB1AD108E10851
:10203000F108858504C0CC0CDD1CEE1CFF1C8A95C4
:10204000D2F74685578560897189C40ED51EE61E74
:10205000F71E48CF9E012F5F3F4FCF010E945E0CBD
:10206000811103C090E080E087CF89819A81AB81A4
:10207000BC81F801238D348DF901278948EF5FEF8A
:1020800060E070E0203121F048EF5FEF6FEF7FE01C
:1020900084179507A607B70730F0C8010E94730D93
:1020A0008111F8CE8ECFF80186839783A087B18700
:1020B000F1CEF8018581882309F483CF61E0C8015E
:1020C0000E94730E811156CF7CCF6A017B01B2E072
:1020D000CB1AD108E108F108858504C0CC0CDD1CC1
:1020E000EE1CFF1C8A95D2F7468557856089718959
:1020F000C40ED51EE61EF71E41E0C701B6010E94C0
:10210000DC0A811111CF5DCF0895FC016370668BED
:102110008481958126813781613039F0633029F0DF
:102120009187808733872287089531872087938717
:10213000828708952F923F924F925F926F927F9283
:102140008F929F92AF92BF92CF92DF92EF92FF92C7
:102150000F931F93CF93DF93CDB7DEB76A970FB678
:10216000F894DEBF0FBECDBF9A8F898F7A836983C3
:102170004A01D22E18870F833701BC2CDC015996F7
:102180002D913C915A972115310509F015C11896EA
:102190008D919C911997681779070CF0D7C11A9601
:1021A0008D919C91481759070CF0D0C14C2C512CA3
:1021B000B6E0CB9E600D711D11247C876B871616CF
:1021C00017060CF0C3C1EA2DF0E0FA87E98793E027
:1021D000EE0FFF1F9A95E1F7F88BEF87CF01840F81
:1021E000951F181619060CF0B1C1A98DBA8D589615
:1021F0008C91811104C0BFEABD1508F4D394A98D58
:10220000BA8DED91FC9111970284F385E02DCD01FB
:102210000995B5E0DB9EC0011124E981FA81FC83B8
:10222000EB83312C212C9C0128593F4F388F2F8B69
:102230004A2D50E05E8B4D8BEF89F88DE20DF31D3A
:1022400044919E828D82D12CC12C69817A81620D4C
:10225000731D7A8B698B842F90E09C8B8B8BE98D1F
:10226000FA8DA081B18140FF82C0F1E0BF126FC042
:10227000AF126DC01C96ED91FC912F813885A401A1
:102280004C0D5D1D69897A89898D9A8D0995EB8937
:10229000FC89F595E7954E2F5FEFC51AD50A6D813C
:1022A0007E818D899E89680F791F7E836D8398E07A
:1022B000C916D10481F6AFEF2A1A3A0AEB81FC81E4
:1022C000E40DF51DFC83EB83F5E02F16310409F0D6
:1022D000B3CF2F81388526153705B9F0A98DBA8D72
:1022E000ED91FC91B1E0BB1257C0AB1255C06981B2
:1022F0007A816B5F7F4F0088F189E02D830128E0B0
:1023000030E0A401898D9A8D0995A98DBA8DED9142
:10231000FC9111970688F789E02DCD016A960FB6DA
:10232000F894DEBF0FBECDBFDF91CF911F910F910B
:10233000FF90EF90DF90CF90BF90AF909F908F90E5
:102340007F906F905F904F903F902F9009941E96D2
:10235000ED91FC91EF80F88409851A8592014D81F9
:102360005E816B817C81898D9A8D099590CF2F81BB
:1023700038852615370509F48ACF31E0B31207C036
:10238000A31205C01C96ED91FC91930178CF1E9687
:10239000ED91FC917301E0CF6B857C856419750923
:1023A0000684F785E02D73010F8518899201A40139
:1023B000898D9A8D0995A9CFF90134969491329718
:1023C00045915491D91AB7E0DB9E400D511D11245F
:1023D000F901259134913C8B2B8BFA012590349097
:1023E000FA013296749031963491398B329664901A
:1023F0003196449041E04C1518F04A1508F07FC022
:10240000662D062C000C770B7C836B83842D042CAB
:10241000000C990B9E838D83A98DBA8DED91FC9153
:1024200011970284F385E02DCD010995512CD12C13
:10243000C12CEA2DF0E0FA87E9872B2D30E03C87AC
:102440002B87A401440D511D47FC5A95588F4F8B83
:1024500069817A81660D711D67FC7A957E876D872B
:102460007989C71608F051CF2C2D30E04D815E815F
:10247000420F531FA985BA854A9FC0014B9F900DFB
:102480005A9F900D1124FC01E80DF91DF88BEF8780
:10249000852D612C4F89588D420F531F5E8B4D8BBC
:1024A000671408F050C044244394480E877041F4E8
:1024B000C1010196EB89FC89E20DF31DD4901C014A
:1024C000D7FE19C0A98DBA8DED91FC91662D70E0F3
:1024D000B1E0BB1219C0AB1217C02D853E85620F4B
:1024E000731F0484F585E02D2F8138854D895E8921
:1024F000898D9A8D0995DD0C6394842DD1CF1E8230
:102500001D821C821B8288CF4B815C81640F751FEA
:10251000AB85BC856A9FC0016B9F900D7A9F900D23
:10252000112469817A81680F791F0684F785E02D6F
:10253000EF80F88409851A859D014F855889898D1A
:102540009A8D0995D8CF570CC3948ACF6A960FB647
:10255000F894DEBF0FBECDBFDF91CF911F910F91D9
:10256000FF90EF90DF90CF90BF90AF909F908F90B3
:102570007F906F905F904F903F902F9008958F9233
:102580009F92AF92CF92EF92FF920F931F93CF93B0
:10259000DF93EC01262F898D9A8D009709F051C0A9
:1025A0006A30D1F41D861C868D8948E0849F900195
:1025B00011248E859F85820F931F9F878E8781E0D0
:1025C00090E0DF91CF911F910F91FF90EF90CF900E
:1025D000AF909F908F9008956D3089F3CC88AD882F
:1025E0008F898823C1F08C859D8536E0C39E800D40
:1025F000911D1124488559854817590764F44E8563
:102600005F851D861C8638E0A39EC0011124840FBF
:10261000951F9F878E87EA88FB88088919894E85D0
:102620005F856C857D85CE010E949A102C898C85F2
:102630009D8546E0249F800D911D11249D878C87E8
:10264000BECF6A3069F41D861C86FC013896E49181
:102650002D898E859F85E29F800D911D1124ADCF20
:102660006D3009F4ACCFFC0134963491631708F453
:10267000A6CF3296E491E61708F4A1CFFC0132967A
:1026800085909490462F431B342F47E0349F800C55
:10269000911C1124F401329634913196E491332344
:1026A000A9F1EE2399F1CC88F4013596E491AD8837
:1026B0004F89442301F10E2E000CFF0BE30FF11D97
:1026C000CE9EA001CF9E500D11246C857D85460FB6
:1026D000571F68857985641775076CF44E855F858B
:1026E0001D861C86FC013896E491AE9E400D511D5E
:1026F00011245F874E87EA88FB88088919894E85EF
:102700005F856C857D85CE010E949A10F401349618
:10271000E4912C898C859D85E29F800D911D11246B
:102720008DCF6F927F928F929F92AF92BF92CF92F6
:10273000DF92EF92FF920F931F93CF93DF93EC0101
:102740006B015A0139014801E881F9810284F3855E
:10275000E02D0995E881F9810288F389E02D870150
:102760009301A501B601CE010995A501480D591D9A
:1027700041505109E881F9810288F389E02D9301E4
:10278000B601CE010995E881F9810088F189E02D33
:102790009401A501B601CE010995C60CD71CB6015E
:1027A00061507109E881F9810088F189E02D940177
:1027B000A501CE010995E881F9810688F789E02D08
:1027C000CE01DF91CF911F910F91FF90EF90DF909D
:1027D000CF90BF90AF909F908F907F906F90099413
:1027E0006F927F928F929F92AF92BF92CF92DF9221
:1027F000EF92FF920F931F93CF93DF935C01EB0156
:102800006A01490138018701DC01ED91FC916217F1
:10281000730719F5641675062CF0962D872D3A016D
:10282000C92ED82E9601261937092F5F3F4F048CE9
:10283000F58DE02DA301BE01C5010995DF91CF9172
:102840001F910F91FF90EF90DF90CF90BF90AF90CE
:102850009F908F907F906F9008954615570591F443
:102860002617370724F0892D4B01C22FD82F9E0140
:10287000281939092F5F3F4F068CF78DE02DA601EF
:10288000B401DACF0284F385E02D0995D501ED91ED
:10289000FC910488F589E02D83019401A601BE0115
:1028A000C5010995D501ED91FC910688F789E02DC8
:1028B000C501DF91CF911F910F91FF90EF90DF90B5
:1028C000CF90BF90AF909F908F907F906F90099422
:1028D000EF92FF920F931F93DC011A960D911C91BA
:1028E0001B9718962D913C911997ED91FC9100A0A2
:1028F000F1A1E02D7B0150E040E070E060E009953F
:102900001F910F91FF90EF9008954F925F926F92F9
:102910007F928F929F92AF92BF92CF92DF92EF926F
:10292000FF920F931F93CF93DF936C012B015A01FA
:1029300039014801DC01ED91FC910284F385E02D21
:102940000995E201640C751CD601ED91FC91C61548
:10295000D7055CF40088F189E02D87019401A50179
:10296000BE01C60109952196EFCF0688F789E02DB3
:10297000C601DF91CF911F910F91FF90EF90DF90F3
:10298000CF90BF90AF909F908F907F906F905F900F
:102990004F9009948F929F92AF92BF92CF92DF9205
:1029A000EF92FF920F931F93CF93DF93EC015B01A4
:1029B0004A016901E881F9810284F385E02D0995D6
:1029C00095012C0D3D1D21503109E881F9810488C4
:1029D000F589E02D78018401A401B501CE010995A6
:1029E000E881F9810688F789E02DCE01DF91CF914A
:1029F0001F910F91FF90EF90DF90CF90BF90AF901D
:102A00009F908F9009948F929F92AF92BF92CF9296
:102A1000DF92EF92FF920F931F93CF93DF93EC011E
:102A20005B014A0169017801E881F9810284F3853B
:102A3000E02D0995C80CD91C860101501109E881C7
:102A4000F9810488F589E02D9501A401B501CE0135
:102A50000995E881F9810688F789E02DCE01DF919B
:102A6000CF911F910F91FF90EF90DF90CF90BF908B
:102A7000AF909F908F900994EF92FF920F931F93C6
:102A8000DC01ED91FC9100A0F1A1E02D09951F91D1
:102A90000F91FF90EF9008950F931F93DC01ED913C
:102AA000FC91068CF78DE02D09951F910F910895EB
:102AB0000F931F93DC01ED91FC91048CF58DE02DBB
:102AC00009951F910F910895DC01ED91FC9100840F
:102AD000F185E02D09942F923F924F925F926F9271
:102AE0007F928F929F92AF92BF92CF92DF92EF929E
:102AF000FF920F931F93CF93DF9300D000D000D0AD
:102B0000CDB7DEB73C016A013E832D83FC82EB82A8
:102B10005801A41AB50AB7FE03C0B194A194B10834
:102B20008D809E80861A970A97FE03C091948194A7
:102B300091088A149B045CF0902F812F0D811E81D7
:102B40009D838E839C2D8D2D6B01692F782F0C1505
:102B50001D055CF09D818E817E836D83692F782FAA
:102B6000902F812F8601C92ED82E1601201A310AE6
:102B70002B012D813E81421A530A57FE03C0519406
:102B800041945108710137FE03C03FEFE31AF30A85
:102B9000F594E7948D819E81861797075CF5A1E0F7
:102BA000B0E0BA83A983C016D1064CF1D301ED91F0
:102BB000FC910484F585E02D2B813C81A8016D8179
:102BC0007E818A149B041CF04D815E81B801C30193
:102BD0000995E418F508F7FE0AC02D813E81898128
:102BE0009A81280F391F3E832D83E20CF31C0F5F5F
:102BF0001F4FD9CF2FEF3FEF3A832983D4CF2696AB
:102C00000FB6F894DEBF0FBECDBFDF91CF911F91FD
:102C10000F91FF90EF90DF90CF90BF90AF909F907B
:102C20008F907F906F905F904F903F902F9008957E
:102C3000089590E080E008950E9412191F93CF93A9
:102C4000DF9385ED8093BC008091510190915201FA
:102C5000A0915301B09154010796A11DB11D23E02D
:102C6000B695A795979587952A95D1F72091BC00A1
:102C700024FD03C01092990152C04091510150911E
:102C800052016091530170915401452B462B472B03
:102C900069F30097A105B10541F02AE22A95F1F701
:102CA00000C00197A109B109E1CF80915001C1E0B5
:102CB000C0934F01882399F1D091B8001091BA00C8
:102CC0008091BC008A7B8093BC0060E082E10E941E
:102CD000020360E083E10E94020310929901C09315
:102CE0009B0110929A0161E082E10E94020361E07F
:102CF00083E10E9402038091B9008E7F8093B90026
:102D00008091B9008D7F8093B90088E48093B800EA
:102D100085E48093BC001093BA00D093B800DF9193
:102D2000CF911F9108951F920F920FB60F92112409
:102D30002F933F938F939F93AF93BF938091CA0339
:102D40009091CB03A091CC03B091CD033091C903F6
:102D500023E0230F2D3758F50196A11DB11D2093B7
:102D6000C9038093CA039093CB03A093CC03B09381
:102D7000CD038091C5039091C603A091C703B09184
:102D8000C8030196A11DB11D8093C5039093C6038E
:102D9000A093C703B093C803BF91AF919F918F9148
:102DA0003F912F910F900FBE0F901F90189526E81E
:102DB000230F0296A11DB11DD2CF1F920F920FB605
:102DC0000F9211242F933F934F935F936F937F93B1
:102DD0008F939F93AF93BF93EF93FF938EEC93E00A
:102DE0000E94CC03FF91EF91BF91AF919F918F9182
:102DF0007F916F915F914F913F912F910F900FBEF7
:102E00000F901F9018951F920F920FB60F921124DA
:102E10002F938F939F93EF93FF93E091DE03F091B5
:102E2000DF038081E091E403F091E50382FD1BC0A4
:102E300090818091E7038F5F8F732091E803821761
:102E400041F0E091E703F0E0E253FC4F958F80936F
:102E5000E703FF91EF919F918F912F910F900FBEFC
:102E60000F901F9018958081F4CF1F920F920FB68C
:102E70000F9211242F933F934F935F936F937F9300
:102E80008F939F93AF93BF93EF93FF938091B9007C
:102E9000887F803609F44AC0F0F5883209F4A5C06D
:102EA00018F5803109F499C0B8F4882309F4F5C005
:102EB000883009F492C0FF91EF91BF91AF919F913B
:102EC0008F917F916F915F914F913F912F910F90D3
:102ED0000FBE0F901F901895883109F486C080327C
:102EE00051F78093980114C0803409F49BC040F4DA
:102EF0008033B9F38833F9F68093980185ECAEC03E
:102F0000803509F483C0883509F494C0883499F673
:102F10000E941E16D0CF883909F48AC038F5883748
:102F200029F050F4883611F0803729F683E0809339
:102F300099011092970155C0883809F479C08039F9
:102F400019F0803809F0B7CF80919701803208F0EE
:102F50006FC0E091970181E08E0F8093970180917F
:102F6000BB00F0E0E958FE4F80833BC0803B39F066
:102F7000D0F4803A09F477C0883A09F09CCF84E015
:102F8000809399011092760110927501F0E0E0E0D3
:102F900009958091750181110FC081E080937501C1
:102FA0001092550109C0803C09F4A8CF883C09F46F
:102FB000A5CF883B09F07FCFE091760181E08E0FAD
:102FC00080937601F0E0EB5AFE4F80818093BB0046
:102FD000909176018091750129C08091BE01809306
:102FE000BB0085EC8093BC0066CF9091BD018091C1
:102FF000BC01981758F5E091BD0181E08E0F8093D8
:10300000BD01F0E0E456FE4F8081E9CFE091BD01C3
:1030100081E08E0F8093BD018091BB00F0E0E4560B
:10302000FE4F80839091BD018091BC019817C8F23A
:1030300085E8D8CFE091BD0181E08E0F8093BD017E
:103040008091BB00F0E0E456FE4F808380919B01AD
:1030500081115ECF81E080939A0184EA8093BC0065
:103060001092990128CF85EC8093BC0010929901B1
:1030700080919701803230F4E0919701F0E0E958B7
:10308000FE4F10826091970170E087E791E0F0E0D9
:10309000E0E00995109297010ECF1092980138CF79
:1030A000EEECF3E01382128288EE93E0A0E0B0E051
:1030B00084839583A683B78388E091E0918380839E
:1030C00085EC90E09587848784EC90E097878687ED
:1030D00080EC90E0918B808B81EC90E0938B828BE5
:1030E00082EC90E0958B848B86EC90E0978B868BBE
:1030F000118E128E138E148EEBE6F4E080E5808341
:103100001182EDE6F4E0158216821186138682E0C4
:1031100090E0A0E0B0E084879587A687B78713A2E8
:1031200015A614A68AE191E093A782A717A6E6EB5D
:10313000F4E01382128220EF30E03583248380E4B0
:1031400091E0978386833187208793878287168AC9
:10315000158614861786168681E0858B848B2FEF63
:103160003FEF338B228B318B208B878B108E128E0F
:10317000118E86E291E0918380830895789484B5DE
:10318000826084BD84B5816084BD85B5826085BD63
:1031900085B5816085BD80916E00816080936E00F1
:1031A00010928100809181008260809381008091E3
:1031B0008100816080938100809180008160809394
:1031C00080008091B10084608093B1008091B00054
:1031D00081608093B00080917A00846080937A004F
:1031E00080917A00826080937A0080917A00816079
:1031F00080937A0080917A00806880937A001092A0
:10320000C100C0E0D0E02097F1F30E94B80388230A
:10321000D1F30E940000F7CFEE0FFF1F0590F4914D
:10322000E02D099481E090E0F8940C941719F8943B
:02323000FFCFCE
:10323200FFFFFFFF00000000EE034E037B033B0491
:10324200AC038A039E03000000000F0F4E03B50E6D
:10325200181600000000BF124E0319161816710648
:103262006D0964153C1558154C156B156D099D06B5
:0E327200C50415090209BB05E508F013911308
:00000001FF
